{
  "_format": "hh-sol-artifact-1",
  "contractName": "OrganDonation",
  "sourceName": "contracts/Organdonation.sol",
  "abi": [
    {
      "inputs": [
        {
          "internalType": "address",
          "name": "userRegistryAddress",
          "type": "address"
        }
      ],
      "stateMutability": "nonpayable",
      "type": "constructor"
    },
    {
      "anonymous": false,
      "inputs": [
        {
          "indexed": false,
          "internalType": "uint256",
          "name": "requestID",
          "type": "uint256"
        },
        {
          "indexed": true,
          "internalType": "address",
          "name": "patientAddress",
          "type": "address"
        },
        {
          "indexed": false,
          "internalType": "string",
          "name": "message",
          "type": "string"
        }
      ],
      "name": "OrganRequestRegistered",
      "type": "event"
    },
    {
      "anonymous": false,
      "inputs": [
        {
          "indexed": false,
          "internalType": "bool",
          "name": "consent",
          "type": "bool"
        },
        {
          "indexed": true,
          "internalType": "address",
          "name": "donor",
          "type": "address"
        },
        {
          "indexed": true,
          "internalType": "uint256",
          "name": "requestId",
          "type": "uint256"
        }
      ],
      "name": "doctorsConsent",
      "type": "event"
    },
    {
      "anonymous": false,
      "inputs": [
        {
          "indexed": false,
          "internalType": "uint256",
          "name": "requestID",
          "type": "uint256"
        },
        {
          "indexed": true,
          "internalType": "address",
          "name": "donor",
          "type": "address"
        },
        {
          "indexed": false,
          "internalType": "string",
          "name": "message",
          "type": "string"
        }
      ],
      "name": "matchStatusFailed",
      "type": "event"
    },
    {
      "anonymous": false,
      "inputs": [
        {
          "indexed": false,
          "internalType": "uint256",
          "name": "requestID",
          "type": "uint256"
        },
        {
          "indexed": true,
          "internalType": "address",
          "name": "donor",
          "type": "address"
        },
        {
          "indexed": false,
          "internalType": "string",
          "name": "message",
          "type": "string"
        }
      ],
      "name": "matchStatusSuccess",
      "type": "event"
    },
    {
      "anonymous": false,
      "inputs": [
        {
          "indexed": false,
          "internalType": "bool",
          "name": "consent",
          "type": "bool"
        },
        {
          "indexed": true,
          "internalType": "address",
          "name": "patient",
          "type": "address"
        },
        {
          "indexed": true,
          "internalType": "uint256",
          "name": "requestId",
          "type": "uint256"
        }
      ],
      "name": "patientConsent",
      "type": "event"
    },
    {
      "anonymous": false,
      "inputs": [
        {
          "indexed": false,
          "internalType": "uint256",
          "name": "requestID",
          "type": "uint256"
        },
        {
          "indexed": false,
          "internalType": "string",
          "name": "message",
          "type": "string"
        }
      ],
      "name": "requestStateChanged",
      "type": "event"
    },
    {
      "inputs": [
        {
          "internalType": "uint256",
          "name": "_requestID",
          "type": "uint256"
        }
      ],
      "name": "completeTransplant",
      "outputs": [],
      "stateMutability": "nonpayable",
      "type": "function"
    },
    {
      "inputs": [
        {
          "internalType": "uint256",
          "name": "requestId",
          "type": "uint256"
        }
      ],
      "name": "getOrganMatchSummary",
      "outputs": [
        {
          "components": [
            {
              "internalType": "uint256",
              "name": "BMIDifference",
              "type": "uint256"
            },
            {
              "internalType": "bool",
              "name": "bloodGroupMatch",
              "type": "bool"
            },
            {
              "internalType": "bool",
              "name": "organMatch",
              "type": "bool"
            },
            {
              "internalType": "enum IUserRegistry.UrgencyType",
              "name": "urgencyLevel",
              "type": "uint8"
            },
            {
              "internalType": "uint256",
              "name": "compatibilityScore",
              "type": "uint256"
            }
          ],
          "internalType": "struct OrganDonation.organMatchSummary",
          "name": "",
          "type": "tuple"
        }
      ],
      "stateMutability": "view",
      "type": "function"
    },
    {
      "inputs": [
        {
          "internalType": "uint256",
          "name": "_requestID",
          "type": "uint256"
        }
      ],
      "name": "getRequest",
      "outputs": [
        {
          "components": [
            {
              "internalType": "uint256",
              "name": "requestID",
              "type": "uint256"
            },
            {
              "internalType": "enum IUserRegistry.OrganType",
              "name": "organType",
              "type": "uint8"
            },
            {
              "internalType": "address",
              "name": "donor",
              "type": "address"
            },
            {
              "internalType": "address",
              "name": "patient",
              "type": "address"
            },
            {
              "internalType": "address",
              "name": "donorSurgeon",
              "type": "address"
            },
            {
              "internalType": "address",
              "name": "patientSurgeon",
              "type": "address"
            },
            {
              "internalType": "bool",
              "name": "doctorApproval",
              "type": "bool"
            },
            {
              "internalType": "bool",
              "name": "patientConsent",
              "type": "bool"
            },
            {
              "internalType": "uint256",
              "name": "patientConsentDate",
              "type": "uint256"
            },
            {
              "internalType": "uint256",
              "name": "donorConsentDate",
              "type": "uint256"
            },
            {
              "internalType": "uint256",
              "name": "requestRegistrationDate",
              "type": "uint256"
            },
            {
              "internalType": "enum IUserRegistry.UrgencyType",
              "name": "urgencyLevel",
              "type": "uint8"
            },
            {
              "internalType": "enum OrganDonation.Status",
              "name": "status",
              "type": "uint8"
            }
          ],
          "internalType": "struct OrganDonation.OrganRequest",
          "name": "",
          "type": "tuple"
        }
      ],
      "stateMutability": "view",
      "type": "function"
    },
    {
      "inputs": [
        {
          "internalType": "uint256",
          "name": "_requestID",
          "type": "uint256"
        }
      ],
      "name": "getRequestStatus",
      "outputs": [
        {
          "internalType": "enum OrganDonation.Status",
          "name": "",
          "type": "uint8"
        }
      ],
      "stateMutability": "view",
      "type": "function"
    },
    {
      "inputs": [
        {
          "internalType": "address",
          "name": "_userAddress",
          "type": "address"
        }
      ],
      "name": "getUserDetails",
      "outputs": [
        {
          "components": [
            {
              "internalType": "uint256",
              "name": "userID",
              "type": "uint256"
            },
            {
              "internalType": "enum IUserRegistry.Bloodtype",
              "name": "bloodGroup",
              "type": "uint8"
            },
            {
              "internalType": "uint256",
              "name": "BMI",
              "type": "uint256"
            },
            {
              "internalType": "address",
              "name": "hospitalAddress",
              "type": "address"
            },
            {
              "internalType": "uint256[]",
              "name": "organRefusalList",
              "type": "uint256[]"
            },
            {
              "internalType": "enum IUserRegistry.UserRole",
              "name": "userType",
              "type": "uint8"
            }
          ],
          "internalType": "struct IUserRegistry.User",
          "name": "",
          "type": "tuple"
        }
      ],
      "stateMutability": "view",
      "type": "function"
    },
    {
      "inputs": [
        {
          "internalType": "uint256",
          "name": "_requestID",
          "type": "uint256"
        }
      ],
      "name": "initiateTransport",
      "outputs": [],
      "stateMutability": "nonpayable",
      "type": "function"
    },
    {
      "inputs": [
        {
          "internalType": "uint256",
          "name": "requestID",
          "type": "uint256"
        }
      ],
      "name": "isValidRequestID",
      "outputs": [
        {
          "internalType": "bool",
          "name": "",
          "type": "bool"
        }
      ],
      "stateMutability": "view",
      "type": "function"
    },
    {
      "inputs": [
        {
          "internalType": "uint256",
          "name": "_requestID",
          "type": "uint256"
        }
      ],
      "name": "markDonorProcedureSucessfull",
      "outputs": [],
      "stateMutability": "nonpayable",
      "type": "function"
    },
    {
      "inputs": [
        {
          "internalType": "uint256",
          "name": "",
          "type": "uint256"
        }
      ],
      "name": "matchSummary",
      "outputs": [
        {
          "internalType": "uint256",
          "name": "BMIDifference",
          "type": "uint256"
        },
        {
          "internalType": "bool",
          "name": "bloodGroupMatch",
          "type": "bool"
        },
        {
          "internalType": "bool",
          "name": "organMatch",
          "type": "bool"
        },
        {
          "internalType": "enum IUserRegistry.UrgencyType",
          "name": "urgencyLevel",
          "type": "uint8"
        },
        {
          "internalType": "uint256",
          "name": "compatibilityScore",
          "type": "uint256"
        }
      ],
      "stateMutability": "view",
      "type": "function"
    },
    {
      "inputs": [
        {
          "internalType": "uint256",
          "name": "_requestID",
          "type": "uint256"
        }
      ],
      "name": "organReceived",
      "outputs": [],
      "stateMutability": "nonpayable",
      "type": "function"
    },
    {
      "inputs": [
        {
          "internalType": "bool",
          "name": "consent",
          "type": "bool"
        },
        {
          "internalType": "uint256",
          "name": "requestID",
          "type": "uint256"
        }
      ],
      "name": "registerDoctorApproval",
      "outputs": [],
      "stateMutability": "nonpayable",
      "type": "function"
    },
    {
      "inputs": [
        {
          "internalType": "address",
          "name": "_patient",
          "type": "address"
        },
        {
          "internalType": "enum IUserRegistry.UrgencyType",
          "name": "_urgencyLevel",
          "type": "uint8"
        },
        {
          "internalType": "enum IUserRegistry.OrganType",
          "name": "_organType",
          "type": "uint8"
        },
        {
          "internalType": "address",
          "name": "_patientSurgeon",
          "type": "address"
        }
      ],
      "name": "registerOrganRequest",
      "outputs": [
        {
          "internalType": "uint256",
          "name": "",
          "type": "uint256"
        }
      ],
      "stateMutability": "nonpayable",
      "type": "function"
    },
    {
      "inputs": [
        {
          "internalType": "bool",
          "name": "consent",
          "type": "bool"
        },
        {
          "internalType": "uint256",
          "name": "requestID",
          "type": "uint256"
        }
      ],
      "name": "registerPatientConsent",
      "outputs": [],
      "stateMutability": "nonpayable",
      "type": "function"
    },
    {
      "inputs": [
        {
          "internalType": "uint256",
          "name": "_compatibilityScore",
          "type": "uint256"
        },
        {
          "internalType": "address",
          "name": "_donor",
          "type": "address"
        },
        {
          "internalType": "uint256",
          "name": "requestId",
          "type": "uint256"
        }
      ],
      "name": "validateOrganMatch",
      "outputs": [
        {
          "internalType": "bool",
          "name": "",
          "type": "bool"
        }
      ],
      "stateMutability": "nonpayable",
      "type": "function"
    }
  ],
  "bytecode": "0x608060405260006002553480156200001657600080fd5b50604051620044883803806200448883398181016040528101906200003c91906200014c565b336000806101000a81548173ffffffffffffffffffffffffffffffffffffffff021916908373ffffffffffffffffffffffffffffffffffffffff16021790555080600160006101000a81548173ffffffffffffffffffffffffffffffffffffffff021916908373ffffffffffffffffffffffffffffffffffffffff160217905550600360018160018154018082558091505003906000526020600020905050506200017e565b600080fd5b600073ffffffffffffffffffffffffffffffffffffffff82169050919050565b60006200011482620000e7565b9050919050565b620001268162000107565b81146200013257600080fd5b50565b60008151905062000146816200011b565b92915050565b600060208284031215620001655762000164620000e2565b5b6000620001758482850162000135565b91505092915050565b6142fa806200018e6000396000f3fe608060405234801561001057600080fd5b50600436106100ea5760003560e01c8063c2d3f7b91161008c578063cc3d967b11610066578063cc3d967b14610283578063cf3dcf0c146102b3578063d8a4676f146102cf578063f3ee77dc146102ff576100ea565b8063c2d3f7b9146101f3578063c58343ef14610223578063c5e9bdb914610253576100ea565b80638f326069116100c85780638f3260691461015b578063b8434b261461018b578063b8d12415146101bb578063b9ae82c4146101d7576100ea565b80630cf98ab2146100ef5780633ec27c2114610123578063671d6d111461013f575b600080fd5b61010960048036038101906101049190612f02565b61031b565b60405161011a959493929190612fd0565b60405180910390f35b61013d60048036038101906101389190612f02565b610378565b005b61015960048036038101906101549190612f02565b61053e565b005b610175600480360381019061017091906130cb565b6109f5565b6040516101829190613132565b60405180910390f35b6101a560048036038101906101a09190612f02565b610fff565b6040516101b291906131e2565b60405180910390f35b6101d560048036038101906101d09190612f02565b6110b1565b005b6101f160048036038101906101ec9190612f02565b611277565b005b61020d600480360381019061020891906131fd565b611473565b60405161021a9190613250565b60405180910390f35b61023d60048036038101906102389190612f02565b6118bd565b60405161024a9190613415565b60405180910390f35b61026d60048036038101906102689190612f02565b611b61565b60405161027a9190613250565b60405180910390f35b61029d60048036038101906102989190613431565b611b7e565b6040516102aa9190613626565b60405180910390f35b6102cd60048036038101906102c89190613674565b611c34565b005b6102e960048036038101906102e49190612f02565b611f85565b6040516102f691906136c3565b60405180910390f35b61031960048036038101906103149190613674565b611fc1565b005b60046020528060005260406000206000915090508060000154908060010160009054906101000a900460ff16908060010160019054906101000a900460ff16908060010160029054906101000a900460ff16908060020154905085565b600160009054906101000a900473ffffffffffffffffffffffffffffffffffffffff1673ffffffffffffffffffffffffffffffffffffffff1663bc84243e336040518263ffffffff1660e01b81526004016103d391906136ed565b602060405180830381865afa1580156103f0573d6000803e3d6000fd5b505050506040513d601f19601f82011682018060405250810190610414919061371d565b610453576040517f08c379a000000000000000000000000000000000000000000000000000000000815260040161044a906137cd565b60405180910390fd5b6004600681111561046757610466612f59565b5b6003828154811061047b5761047a6137ed565b5b906000526020600020906009020160080160019054906101000a900460ff1660068111156104ac576104ab612f59565b5b146104b657600080fd5b6005600382815481106104cc576104cb6137ed565b5b906000526020600020906009020160080160016101000a81548160ff021916908360068111156104ff576104fe612f59565b5b02179055507f0c851528bf9bf1666dde60973b721e8e9c1546f8532825083575b7ecfb40ca47816040516105339190613868565b60405180910390a150565b600160009054906101000a900473ffffffffffffffffffffffffffffffffffffffff1673ffffffffffffffffffffffffffffffffffffffff1663bc84243e336040518263ffffffff1660e01b815260040161059991906136ed565b602060405180830381865afa1580156105b6573d6000803e3d6000fd5b505050506040513d601f19601f820116820180604052508101906105da919061371d565b610619576040517f08c379a0000000000000000000000000000000000000000000000000000000008152600401610610906137cd565b60405180910390fd5b60006003828154811061062f5761062e6137ed565b5b9060005260206000209060090201604051806101a0016040529081600082015481526020016001820160009054906101000a900460ff16600781111561067857610677612f59565b5b600781111561068a57610689612f59565b5b81526020016001820160019054906101000a900473ffffffffffffffffffffffffffffffffffffffff1673ffffffffffffffffffffffffffffffffffffffff1673ffffffffffffffffffffffffffffffffffffffff1681526020016002820160009054906101000a900473ffffffffffffffffffffffffffffffffffffffff1673ffffffffffffffffffffffffffffffffffffffff1673ffffffffffffffffffffffffffffffffffffffff1681526020016003820160009054906101000a900473ffffffffffffffffffffffffffffffffffffffff1673ffffffffffffffffffffffffffffffffffffffff1673ffffffffffffffffffffffffffffffffffffffff1681526020016004820160009054906101000a900473ffffffffffffffffffffffffffffffffffffffff1673ffffffffffffffffffffffffffffffffffffffff1673ffffffffffffffffffffffffffffffffffffffff1681526020016004820160149054906101000a900460ff161515151581526020016004820160159054906101000a900460ff161515151581526020016005820154815260200160068201548152602001600782015481526020016008820160009054906101000a900460ff16600281111561085f5761085e612f59565b5b600281111561087157610870612f59565b5b81526020016008820160019054906101000a900460ff16600681111561089a57610899612f59565b5b60068111156108ac576108ab612f59565b5b815250509050600160009054906101000a900473ffffffffffffffffffffffffffffffffffffffff1673ffffffffffffffffffffffffffffffffffffffff1663c557f69c82604001518360200151600781111561090c5761090b612f59565b5b6040518363ffffffff1660e01b8152600401610929929190613896565b6020604051808303816000875af1158015610948573d6000803e3d6000fd5b505050506040513d601f19601f8201168201806040525081019061096c919061371d565b506003808381548110610982576109816137ed565b5b906000526020600020906009020160080160016101000a81548160ff021916908360068111156109b5576109b4612f59565b5b02179055507f0c851528bf9bf1666dde60973b721e8e9c1546f8532825083575b7ecfb40ca47826040516109e9919061390b565b60405180910390a15050565b6000600160009054906101000a900473ffffffffffffffffffffffffffffffffffffffff1673ffffffffffffffffffffffffffffffffffffffff1663bc84243e336040518263ffffffff1660e01b8152600401610a5291906136ed565b602060405180830381865afa158015610a6f573d6000803e3d6000fd5b505050506040513d601f19601f82011682018060405250810190610a93919061371d565b610ad2576040517f08c379a0000000000000000000000000000000000000000000000000000000008152600401610ac9906137cd565b60405180910390fd5b600073ffffffffffffffffffffffffffffffffffffffff168573ffffffffffffffffffffffffffffffffffffffff1603610b41576040517f08c379a0000000000000000000000000000000000000000000000000000000008152600401610b3890613985565b60405180910390fd5b6000600160009054906101000a900473ffffffffffffffffffffffffffffffffffffffff1673ffffffffffffffffffffffffffffffffffffffff16636f77926b876040518263ffffffff1660e01b8152600401610b9e91906136ed565b600060405180830381865afa158015610bbb573d6000803e3d6000fd5b505050506040513d6000823e3d601f19601f82011682018060405250810190610be49190613c38565b9050600280811115610bf957610bf8612f59565b5b8160a001516002811115610c1057610c0f612f59565b5b14610c50576040517f08c379a0000000000000000000000000000000000000000000000000000000008152600401610c4790613ccd565b60405180910390fd5b60026000815480929190610c6390613d1c565b91905055506003604051806101a001604052806002548152602001866007811115610c9157610c90612f59565b5b8152602001600073ffffffffffffffffffffffffffffffffffffffff1681526020018873ffffffffffffffffffffffffffffffffffffffff168152602001600073ffffffffffffffffffffffffffffffffffffffff1681526020018573ffffffffffffffffffffffffffffffffffffffff1681526020016000151581526020016000151581526020016000815260200160008152602001428152602001876002811115610d4157610d40612f59565b5b815260200160006006811115610d5a57610d59612f59565b5b81525090806001815401808255809150506001900390600052602060002090600902016000909190919091506000820151816000015560208201518160010160006101000a81548160ff02191690836007811115610dbb57610dba612f59565b5b021790555060408201518160010160016101000a81548173ffffffffffffffffffffffffffffffffffffffff021916908373ffffffffffffffffffffffffffffffffffffffff16021790555060608201518160020160006101000a81548173ffffffffffffffffffffffffffffffffffffffff021916908373ffffffffffffffffffffffffffffffffffffffff16021790555060808201518160030160006101000a81548173ffffffffffffffffffffffffffffffffffffffff021916908373ffffffffffffffffffffffffffffffffffffffff16021790555060a08201518160040160006101000a81548173ffffffffffffffffffffffffffffffffffffffff021916908373ffffffffffffffffffffffffffffffffffffffff16021790555060c08201518160040160146101000a81548160ff02191690831515021790555060e08201518160040160156101000a81548160ff0219169083151502179055506101008201518160050155610120820151816006015561014082015181600701556101608201518160080160006101000a81548160ff02191690836002811115610f6957610f68612f59565b5b02179055506101808201518160080160016101000a81548160ff02191690836006811115610f9a57610f99612f59565b5b021790555050508573ffffffffffffffffffffffffffffffffffffffff167f0dc17ac6ace203e191fc214b0c3c73f205fd7c2ede90e066ede526d593bef7d9600254604051610fe99190613db0565b60405180910390a2600254915050949350505050565b611007612d09565b600460008381526020019081526020016000206040518060a0016040529081600082015481526020016001820160009054906101000a900460ff161515151581526020016001820160019054906101000a900460ff161515151581526020016001820160029054906101000a900460ff16600281111561108a57611089612f59565b5b600281111561109c5761109b612f59565b5b81526020016002820154815250509050919050565b600160009054906101000a900473ffffffffffffffffffffffffffffffffffffffff1673ffffffffffffffffffffffffffffffffffffffff1663bc84243e336040518263ffffffff1660e01b815260040161110c91906136ed565b602060405180830381865afa158015611129573d6000803e3d6000fd5b505050506040513d601f19601f8201168201806040525081019061114d919061371d565b61118c576040517f08c379a0000000000000000000000000000000000000000000000000000000008152600401611183906137cd565b60405180910390fd5b600560068111156111a05761119f612f59565b5b600382815481106111b4576111b36137ed565b5b906000526020600020906009020160080160019054906101000a900460ff1660068111156111e5576111e4612f59565b5b146111ef57600080fd5b600660038281548110611205576112046137ed565b5b906000526020600020906009020160080160016101000a81548160ff0219169083600681111561123857611237612f59565b5b02179055507f0c851528bf9bf1666dde60973b721e8e9c1546f8532825083575b7ecfb40ca478160405161126c9190613e2a565b60405180910390a150565b600160009054906101000a900473ffffffffffffffffffffffffffffffffffffffff1673ffffffffffffffffffffffffffffffffffffffff1663bc84243e336040518263ffffffff1660e01b81526004016112d291906136ed565b602060405180830381865afa1580156112ef573d6000803e3d6000fd5b505050506040513d601f19601f82011682018060405250810190611313919061371d565b611352576040517f08c379a0000000000000000000000000000000000000000000000000000000008152600401611349906137cd565b60405180910390fd5b6003600681111561136657611365612f59565b5b6003828154811061137a576113796137ed565b5b906000526020600020906009020160080160019054906101000a900460ff1660068111156113ab576113aa612f59565b5b146113eb576040517f08c379a00000000000000000000000000000000000000000000000000000000081526004016113e290613ea4565b60405180910390fd5b600460038281548110611401576114006137ed565b5b906000526020600020906009020160080160016101000a81548160ff0219169083600681111561143457611433612f59565b5b02179055507f0c851528bf9bf1666dde60973b721e8e9c1546f8532825083575b7ecfb40ca47816040516114689190613f10565b60405180910390a150565b6000806003838154811061148a576114896137ed565b5b906000526020600020906009020160020160009054906101000a900473ffffffffffffffffffffffffffffffffffffffff1690506000600384815481106114d4576114d36137ed565b5b906000526020600020906009020160010160009054906101000a900460ff1690506000600160009054906101000a900473ffffffffffffffffffffffffffffffffffffffff1673ffffffffffffffffffffffffffffffffffffffff16637c2356918784600781111561154957611548612f59565b5b6040518363ffffffff1660e01b8152600401611566929190613896565b602060405180830381865afa158015611583573d6000803e3d6000fd5b505050506040513d601f19601f820116820180604052508101906115a79190613f63565b9050600160028111156115bd576115bc612f59565b5b8160028111156115d0576115cf612f59565b5b1461162f578573ffffffffffffffffffffffffffffffffffffffff167f24cc4d6d22d6cc89e8a5633df13514b43fa32233399686042d3db614998020da8660405161161b9190613fdc565b60405180910390a2600093505050506118b6565b600061163c84888861224a565b90508781608001511061185f576116538785612660565b1561185e5780600460008881526020019081526020016000206000820151816000015560208201518160010160006101000a81548160ff02191690831515021790555060408201518160010160016101000a81548160ff02191690831515021790555060608201518160010160026101000a81548160ff021916908360028111156116e1576116e0612f59565b5b02179055506080820151816002015590505060016004600088815260200190815260200160002060010160016101000a81548160ff02191690831515021790555060016004600088815260200190815260200160002060010160006101000a81548160ff0219169083151502179055508660038781548110611766576117656137ed565b5b906000526020600020906009020160010160016101000a81548173ffffffffffffffffffffffffffffffffffffffff021916908373ffffffffffffffffffffffffffffffffffffffff1602179055506001600387815481106117cb576117ca6137ed565b5b906000526020600020906009020160080160016101000a81548160ff021916908360068111156117fe576117fd612f59565b5b02179055508673ffffffffffffffffffffffffffffffffffffffff167f53b319656846a2920b1ae497cbd37dc4833f66b6655470a87d35cc22b0c2047c876040516118499190614056565b60405180910390a260019450505050506118b6565b5b8673ffffffffffffffffffffffffffffffffffffffff167f24cc4d6d22d6cc89e8a5633df13514b43fa32233399686042d3db614998020da876040516118a591906140f6565b60405180910390a260009450505050505b9392505050565b6118c5612d4e565b600382815481106118d9576118d86137ed565b5b9060005260206000209060090201604051806101a0016040529081600082015481526020016001820160009054906101000a900460ff16600781111561192257611921612f59565b5b600781111561193457611933612f59565b5b81526020016001820160019054906101000a900473ffffffffffffffffffffffffffffffffffffffff1673ffffffffffffffffffffffffffffffffffffffff1673ffffffffffffffffffffffffffffffffffffffff1681526020016002820160009054906101000a900473ffffffffffffffffffffffffffffffffffffffff1673ffffffffffffffffffffffffffffffffffffffff1673ffffffffffffffffffffffffffffffffffffffff1681526020016003820160009054906101000a900473ffffffffffffffffffffffffffffffffffffffff1673ffffffffffffffffffffffffffffffffffffffff1673ffffffffffffffffffffffffffffffffffffffff1681526020016004820160009054906101000a900473ffffffffffffffffffffffffffffffffffffffff1673ffffffffffffffffffffffffffffffffffffffff1673ffffffffffffffffffffffffffffffffffffffff1681526020016004820160149054906101000a900460ff161515151581526020016004820160159054906101000a900460ff161515151581526020016005820154815260200160068201548152602001600782015481526020016008820160009054906101000a900460ff166002811115611b0957611b08612f59565b5b6002811115611b1b57611b1a612f59565b5b81526020016008820160019054906101000a900460ff166006811115611b4457611b43612f59565b5b6006811115611b5657611b55612f59565b5b815250509050919050565b60008082118015611b7757506003805490508211155b9050919050565b611b86612e48565b6000600160009054906101000a900473ffffffffffffffffffffffffffffffffffffffff1673ffffffffffffffffffffffffffffffffffffffff16636f77926b846040518263ffffffff1660e01b8152600401611be391906136ed565b600060405180830381865afa158015611c00573d6000803e3d6000fd5b505050506040513d6000823e3d601f19601f82011682018060405250810190611c299190613c38565b905080915050919050565b60016006811115611c4857611c47612f59565b5b60038281548110611c5c57611c5b6137ed565b5b906000526020600020906009020160080160019054906101000a900460ff166006811115611c8d57611c8c612f59565b5b14611ccd576040517f08c379a0000000000000000000000000000000000000000000000000000000008152600401611cc490614170565b60405180910390fd5b60038181548110611ce157611ce06137ed565b5b906000526020600020906009020160020160009054906101000a900473ffffffffffffffffffffffffffffffffffffffff1673ffffffffffffffffffffffffffffffffffffffff163373ffffffffffffffffffffffffffffffffffffffff1614611d80576040517f08c379a0000000000000000000000000000000000000000000000000000000008152600401611d7790613ccd565b60405180910390fd5b6001151582151503611e47574260038281548110611da157611da06137ed565b5b9060005260206000209060090201600501819055508160038281548110611dcb57611dca6137ed565b5b906000526020600020906009020160040160156101000a81548160ff021916908315150217905550803373ffffffffffffffffffffffffffffffffffffffff167f2ef339de40fcf18681a8e9c05e216389650b9cda0afff6f25fdb42d7b39c81bb84604051611e3a9190613250565b60405180910390a3611f32565b6000151582151503611f3157600160009054906101000a900473ffffffffffffffffffffffffffffffffffffffff1673ffffffffffffffffffffffffffffffffffffffff16635737028033836040518363ffffffff1660e01b8152600401611eb0929190613896565b600060405180830381600087803b158015611eca57600080fd5b505af1158015611ede573d6000803e3d6000fd5b50505050600260038281548110611ef857611ef76137ed565b5b906000526020600020906009020160080160016101000a81548160ff02191690836006811115611f2b57611f2a612f59565b5b02179055505b5b803373ffffffffffffffffffffffffffffffffffffffff167f2ef339de40fcf18681a8e9c05e216389650b9cda0afff6f25fdb42d7b39c81bb84604051611f799190613250565b60405180910390a35050565b600060038281548110611f9b57611f9a6137ed565b5b906000526020600020906009020160080160019054906101000a900460ff169050919050565b60016006811115611fd557611fd4612f59565b5b60038281548110611fe957611fe86137ed565b5b906000526020600020906009020160080160019054906101000a900460ff16600681111561201a57612019612f59565b5b1461205a576040517f08c379a000000000000000000000000000000000000000000000000000000000815260040161205190614170565b60405180910390fd5b6003818154811061206e5761206d6137ed565b5b906000526020600020906009020160040160009054906101000a900473ffffffffffffffffffffffffffffffffffffffff1673ffffffffffffffffffffffffffffffffffffffff163373ffffffffffffffffffffffffffffffffffffffff161461210d576040517f08c379a0000000000000000000000000000000000000000000000000000000008152600401612104906141dc565b60405180910390fd5b60011515821515036121ab5760016003828154811061212f5761212e6137ed565b5b906000526020600020906009020160040160146101000a81548160ff021916908315150217905550803373ffffffffffffffffffffffffffffffffffffffff167f79bb90b32aefd28807a5deb3a523fadcf754d6d82dd97aa3ddef6632d8af126f8460405161219e9190613250565b60405180910390a3612246565b6000151582151503612245576000600382815481106121cd576121cc6137ed565b5b906000526020600020906009020160040160146101000a81548160ff021916908315150217905550803373ffffffffffffffffffffffffffffffffffffffff167f79bb90b32aefd28807a5deb3a523fadcf754d6d82dd97aa3ddef6632d8af126f8460405161223c9190613250565b60405180910390a35b5b5050565b612252612d09565b61225a612d09565b6000600160009054906101000a900473ffffffffffffffffffffffffffffffffffffffff1673ffffffffffffffffffffffffffffffffffffffff16636f77926b866040518263ffffffff1660e01b81526004016122b791906136ed565b600060405180830381865afa1580156122d4573d6000803e3d6000fd5b505050506040513d6000823e3d601f19601f820116820180604052508101906122fd9190613c38565b90506000600160009054906101000a900473ffffffffffffffffffffffffffffffffffffffff1673ffffffffffffffffffffffffffffffffffffffff16636f77926b886040518263ffffffff1660e01b815260040161235c91906136ed565b600060405180830381865afa158015612379573d6000803e3d6000fd5b505050506040513d6000823e3d601f19601f820116820180604052508101906123a29190613c38565b90506000808360400151905060008360400151905060008282116123d15781836123cc91906141fc565b6123de565b82826123dd91906141fc565b5b9050600060038a815481106123f6576123f56137ed565b5b906000526020600020906009020160080160009054906101000a900460ff169050600060038b8154811061242d5761242c6137ed565b5b906000526020600020906009020160070154905060018311612468576003866124569190614230565b955060038960000181815250506124b4565b6003831161248f5760028661247d9190614230565b955060028960000181815250506124b3565b600583116124b2576001866124a49190614230565b955060018960000181815250505b5b5b81896060019060028111156124cc576124cb612f59565b5b908160028111156124e0576124df612f59565b5b815250506002808111156124f7576124f6612f59565b5b82600281111561250a57612509612f59565b5b036125235760038661251c9190614230565b95506125a1565b6001600281111561253757612536612f59565b5b82600281111561254a57612549612f59565b5b036125635760028661255c9190614230565b95506125a0565b6000600281111561257757612576612f59565b5b82600281111561258a57612589612f59565b5b0361259f5760018661259c9190614230565b95505b5b5b600081426125af91906141fc565b9050600062015180826125c29190614293565b9050600081101580156125d65750601e8111155b156125ef576001886125e89190614230565b9750612641565b601e811180156126005750605a8111155b15612619576002886126129190614230565b9750612640565b605a8111801561262a575060b48111155b1561263f5760038861263c9190614230565b97505b5b5b878b60800181815250508a9b5050505050505050505050509392505050565b600080600160009054906101000a900473ffffffffffffffffffffffffffffffffffffffff1673ffffffffffffffffffffffffffffffffffffffff16636f77926b856040518263ffffffff1660e01b81526004016126be91906136ed565b600060405180830381865afa1580156126db573d6000803e3d6000fd5b505050506040513d6000823e3d601f19601f820116820180604052508101906127049190613c38565b90506000600160009054906101000a900473ffffffffffffffffffffffffffffffffffffffff1673ffffffffffffffffffffffffffffffffffffffff16636f77926b856040518263ffffffff1660e01b815260040161276391906136ed565b600060405180830381865afa158015612780573d6000803e3d6000fd5b505050506040513d6000823e3d601f19601f820116820180604052508101906127a99190613c38565b9050600060078111156127bf576127be612f59565b5b826020015160078111156127d6576127d5612f59565b5b148061280a5750600160078111156127f1576127f0612f59565b5b8260200151600781111561280857612807612f59565b5b145b80156128d657506000600781111561282557612824612f59565b5b8160200151600781111561283c5761283b612f59565b5b148061287057506001600781111561285757612856612f59565b5b8160200151600781111561286e5761286d612f59565b5b145b806128a357506006600781111561288a57612889612f59565b5b816020015160078111156128a1576128a0612f59565b5b145b806128d557506007808111156128bc576128bb612f59565b5b816020015160078111156128d3576128d2612f59565b5b145b5b156128e657600192505050612d03565b600260078111156128fa576128f9612f59565b5b8260200151600781111561291157612910612f59565b5b148061294557506003600781111561292c5761292b612f59565b5b8260200151600781111561294357612942612f59565b5b145b8015612a115750600260078111156129605761295f612f59565b5b8160200151600781111561297757612976612f59565b5b14806129ab57506003600781111561299257612991612f59565b5b816020015160078111156129a9576129a8612f59565b5b145b806129de5750600660078111156129c5576129c4612f59565b5b816020015160078111156129dc576129db612f59565b5b145b80612a1057506007808111156129f7576129f6612f59565b5b81602001516007811115612a0e57612a0d612f59565b5b145b5b15612a2157600192505050612d03565b60066007811115612a3557612a34612f59565b5b82602001516007811115612a4c57612a4b612f59565b5b1480612a7f5750600780811115612a6657612a65612f59565b5b82602001516007811115612a7d57612a7c612f59565b5b145b8015612ae5575060066007811115612a9a57612a99612f59565b5b81602001516007811115612ab157612ab0612f59565b5b1480612ae45750600780811115612acb57612aca612f59565b5b81602001516007811115612ae257612ae1612f59565b5b145b5b15612af557600192505050612d03565b60046007811115612b0957612b08612f59565b5b82602001516007811115612b2057612b1f612f59565b5b1480612b54575060056007811115612b3b57612b3a612f59565b5b82602001516007811115612b5257612b51612f59565b5b145b8015612cec575060006007811115612b6f57612b6e612f59565b5b81602001516007811115612b8657612b85612f59565b5b1480612bba575060016007811115612ba157612ba0612f59565b5b81602001516007811115612bb857612bb7612f59565b5b145b80612bed575060026007811115612bd457612bd3612f59565b5b81602001516007811115612beb57612bea612f59565b5b145b80612c20575060036007811115612c0757612c06612f59565b5b81602001516007811115612c1e57612c1d612f59565b5b145b80612c53575060066007811115612c3a57612c39612f59565b5b81602001516007811115612c5157612c50612f59565b5b145b80612c855750600780811115612c6c57612c6b612f59565b5b81602001516007811115612c8357612c82612f59565b5b145b80612cb8575060046007811115612c9f57612c9e612f59565b5b81602001516007811115612cb657612cb5612f59565b5b145b80612ceb575060056007811115612cd257612cd1612f59565b5b81602001516007811115612ce957612ce8612f59565b5b145b5b15612cfc57600192505050612d03565b6000925050505b92915050565b6040518060a001604052806000815260200160001515815260200160001515815260200160006002811115612d4157612d40612f59565b5b8152602001600081525090565b604051806101a001604052806000815260200160006007811115612d7557612d74612f59565b5b8152602001600073ffffffffffffffffffffffffffffffffffffffff168152602001600073ffffffffffffffffffffffffffffffffffffffff168152602001600073ffffffffffffffffffffffffffffffffffffffff168152602001600073ffffffffffffffffffffffffffffffffffffffff16815260200160001515815260200160001515815260200160008152602001600081526020016000815260200160006002811115612e2957612e28612f59565b5b815260200160006006811115612e4257612e41612f59565b5b81525090565b6040518060c001604052806000815260200160006007811115612e6e57612e6d612f59565b5b815260200160008152602001600073ffffffffffffffffffffffffffffffffffffffff1681526020016060815260200160006002811115612eb257612eb1612f59565b5b81525090565b6000604051905090565b600080fd5b600080fd5b6000819050919050565b612edf81612ecc565b8114612eea57600080fd5b50565b600081359050612efc81612ed6565b92915050565b600060208284031215612f1857612f17612ec2565b5b6000612f2684828501612eed565b91505092915050565b612f3881612ecc565b82525050565b60008115159050919050565b612f5381612f3e565b82525050565b7f4e487b7100000000000000000000000000000000000000000000000000000000600052602160045260246000fd5b60038110612f9957612f98612f59565b5b50565b6000819050612faa82612f88565b919050565b6000612fba82612f9c565b9050919050565b612fca81612faf565b82525050565b600060a082019050612fe56000830188612f2f565b612ff26020830187612f4a565b612fff6040830186612f4a565b61300c6060830185612fc1565b6130196080830184612f2f565b9695505050505050565b600073ffffffffffffffffffffffffffffffffffffffff82169050919050565b600061304e82613023565b9050919050565b61305e81613043565b811461306957600080fd5b50565b60008135905061307b81613055565b92915050565b6003811061308e57600080fd5b50565b6000813590506130a081613081565b92915050565b600881106130b357600080fd5b50565b6000813590506130c5816130a6565b92915050565b600080600080608085870312156130e5576130e4612ec2565b5b60006130f38782880161306c565b945050602061310487828801613091565b9350506040613115878288016130b6565b92505060606131268782880161306c565b91505092959194509250565b60006020820190506131476000830184612f2f565b92915050565b61315681612ecc565b82525050565b61316581612f3e565b82525050565b61317481612faf565b82525050565b60a082016000820151613190600085018261314d565b5060208201516131a3602085018261315c565b5060408201516131b6604085018261315c565b5060608201516131c9606085018261316b565b5060808201516131dc608085018261314d565b50505050565b600060a0820190506131f7600083018461317a565b92915050565b60008060006060848603121561321657613215612ec2565b5b600061322486828701612eed565b93505060206132358682870161306c565b925050604061324686828701612eed565b9150509250925092565b60006020820190506132656000830184612f4a565b92915050565b6008811061327c5761327b612f59565b5b50565b600081905061328d8261326b565b919050565b600061329d8261327f565b9050919050565b6132ad81613292565b82525050565b6132bc81613043565b82525050565b600781106132d3576132d2612f59565b5b50565b60008190506132e4826132c2565b919050565b60006132f4826132d6565b9050919050565b613304816132e9565b82525050565b6101a082016000820151613321600085018261314d565b50602082015161333460208501826132a4565b50604082015161334760408501826132b3565b50606082015161335a60608501826132b3565b50608082015161336d60808501826132b3565b5060a082015161338060a08501826132b3565b5060c082015161339360c085018261315c565b5060e08201516133a660e085018261315c565b506101008201516133bb61010085018261314d565b506101208201516133d061012085018261314d565b506101408201516133e561014085018261314d565b506101608201516133fa61016085018261316b565b5061018082015161340f6101808501826132fb565b50505050565b60006101a08201905061342b600083018461330a565b92915050565b60006020828403121561344757613446612ec2565b5b60006134558482850161306c565b91505092915050565b6008811061346f5761346e612f59565b5b50565b60008190506134808261345e565b919050565b600061349082613472565b9050919050565b6134a081613485565b82525050565b600081519050919050565b600082825260208201905092915050565b6000819050602082019050919050565b60006134de838361314d565b60208301905092915050565b6000602082019050919050565b6000613502826134a6565b61350c81856134b1565b9350613517836134c2565b8060005b8381101561354857815161352f88826134d2565b975061353a836134ea565b92505060018101905061351b565b5085935050505092915050565b6003811061356657613565612f59565b5b50565b600081905061357782613555565b919050565b600061358782613569565b9050919050565b6135978161357c565b82525050565b600060c0830160008301516135b5600086018261314d565b5060208301516135c86020860182613497565b5060408301516135db604086018261314d565b5060608301516135ee60608601826132b3565b506080830151848203608086015261360682826134f7565b91505060a083015161361b60a086018261358e565b508091505092915050565b60006020820190508181036000830152613640818461359d565b905092915050565b61365181612f3e565b811461365c57600080fd5b50565b60008135905061366e81613648565b92915050565b6000806040838503121561368b5761368a612ec2565b5b60006136998582860161365f565b92505060206136aa85828601612eed565b9150509250929050565b6136bd816132e9565b82525050565b60006020820190506136d860008301846136b4565b92915050565b6136e781613043565b82525050565b600060208201905061370260008301846136de565b92915050565b60008151905061371781613648565b92915050565b60006020828403121561373357613732612ec2565b5b600061374184828501613708565b91505092915050565b600082825260208201905092915050565b7f4f6e6c79207265676973746572656420686f73706974616c732063616e20636160008201527f6c6c20746869732066756e6374696f6e00000000000000000000000000000000602082015250565b60006137b760308361374a565b91506137c28261375b565b604082019050919050565b600060208201905081810360008301526137e6816137aa565b9050919050565b7f4e487b7100000000000000000000000000000000000000000000000000000000600052603260045260246000fd5b7f4f7267616e207265636569766564000000000000000000000000000000000000600082015250565b6000613852600e8361374a565b915061385d8261381c565b602082019050919050565b600060408201905061387d6000830184612f2f565b818103602083015261388e81613845565b905092915050565b60006040820190506138ab60008301856136de565b6138b86020830184612f2f565b9392505050565b7f446f6e6f72206f7267616e2072656d6f76656400000000000000000000000000600082015250565b60006138f560138361374a565b9150613900826138bf565b602082019050919050565b60006040820190506139206000830184612f2f565b8181036020830152613931816138e8565b905092915050565b7f496e76616c696420646f6e6f72206f722070617469656e742061646472657373600082015250565b600061396f60208361374a565b915061397a82613939565b602082019050919050565b6000602082019050818103600083015261399e81613962565b9050919050565b600080fd5b6000601f19601f8301169050919050565b7f4e487b7100000000000000000000000000000000000000000000000000000000600052604160045260246000fd5b6139f3826139aa565b810181811067ffffffffffffffff82111715613a1257613a116139bb565b5b80604052505050565b6000613a25612eb8565b9050613a3182826139ea565b919050565b600080fd5b600081519050613a4a81612ed6565b92915050565b60088110613a5d57600080fd5b50565b600081519050613a6f81613a50565b92915050565b600081519050613a8481613055565b92915050565b600080fd5b600067ffffffffffffffff821115613aaa57613aa96139bb565b5b602082029050602081019050919050565b600080fd5b6000613ad3613ace84613a8f565b613a1b565b90508083825260208201905060208402830185811115613af657613af5613abb565b5b835b81811015613b1f5780613b0b8882613a3b565b845260208401935050602081019050613af8565b5050509392505050565b600082601f830112613b3e57613b3d613a8a565b5b8151613b4e848260208601613ac0565b91505092915050565b60038110613b6457600080fd5b50565b600081519050613b7681613b57565b92915050565b600060c08284031215613b9257613b916139a5565b5b613b9c60c0613a1b565b90506000613bac84828501613a3b565b6000830152506020613bc084828501613a60565b6020830152506040613bd484828501613a3b565b6040830152506060613be884828501613a75565b606083015250608082015167ffffffffffffffff811115613c0c57613c0b613a36565b5b613c1884828501613b29565b60808301525060a0613c2c84828501613b67565b60a08301525092915050565b600060208284031215613c4e57613c4d612ec2565b5b600082015167ffffffffffffffff811115613c6c57613c6b612ec7565b5b613c7884828501613b7c565b91505092915050565b7f696e76616c69642070617469656e740000000000000000000000000000000000600082015250565b6000613cb7600f8361374a565b9150613cc282613c81565b602082019050919050565b60006020820190508181036000830152613ce681613caa565b9050919050565b7f4e487b7100000000000000000000000000000000000000000000000000000000600052601160045260246000fd5b6000613d2782612ecc565b91507fffffffffffffffffffffffffffffffffffffffffffffffffffffffffffffffff8203613d5957613d58613ced565b5b600182019050919050565b7f70617469656e74206f7267616e20726571756573742072656769737465726564600082015250565b6000613d9a60208361374a565b9150613da582613d64565b602082019050919050565b6000604082019050613dc56000830184612f2f565b8181036020830152613dd681613d8d565b905092915050565b7f4f7267616e207472616e73706c616e7465642073756365737364756c6c790000600082015250565b6000613e14601e8361374a565b9150613e1f82613dde565b602082019050919050565b6000604082019050613e3f6000830184612f2f565b8181036020830152613e5081613e07565b905092915050565b7f446f6e6f722070726f63657373206e6f7420636f6d706c657465000000000000600082015250565b6000613e8e601a8361374a565b9150613e9982613e58565b602082019050919050565b60006020820190508181036000830152613ebd81613e81565b9050919050565b7f4f7267616e206973207472616e73706f72746564000000000000000000000000600082015250565b6000613efa60148361374a565b9150613f0582613ec4565b602082019050919050565b6000604082019050613f256000830184612f2f565b8181036020830152613f3681613eed565b905092915050565b60038110613f4b57600080fd5b50565b600081519050613f5d81613f3e565b92915050565b600060208284031215613f7957613f78612ec2565b5b6000613f8784828501613f4e565b91505092915050565b7f4f7267616e7320446f206e6f74206d6174636800000000000000000000000000600082015250565b6000613fc660138361374a565b9150613fd182613f90565b602082019050919050565b6000604082019050613ff16000830184612f2f565b818103602083015261400281613fb9565b905092915050565b7f4d6174636820436f6d706c657465642053756365737366756c6c790000000000600082015250565b6000614040601b8361374a565b915061404b8261400a565b602082019050919050565b600060408201905061406b6000830184612f2f565b818103602083015261407c81614033565b905092915050565b7f436f6d7061746962696c6974792053636f726520646964206e6f74206d61746360008201527f6800000000000000000000000000000000000000000000000000000000000000602082015250565b60006140e060218361374a565b91506140eb82614084565b604082019050919050565b600060408201905061410b6000830184612f2f565b818103602083015261411c816140d3565b905092915050565b7f696e76616c696420636f6e73656e742072657175657374000000000000000000600082015250565b600061415a60178361374a565b915061416582614124565b602082019050919050565b600060208201905081810360008301526141898161414d565b9050919050565b7f696e76616c696420646f6e6f7200000000000000000000000000000000000000600082015250565b60006141c6600d8361374a565b91506141d182614190565b602082019050919050565b600060208201905081810360008301526141f5816141b9565b9050919050565b600061420782612ecc565b915061421283612ecc565b925082820390508181111561422a57614229613ced565b5b92915050565b600061423b82612ecc565b915061424683612ecc565b925082820190508082111561425e5761425d613ced565b5b92915050565b7f4e487b7100000000000000000000000000000000000000000000000000000000600052601260045260246000fd5b600061429e82612ecc565b91506142a983612ecc565b9250826142b9576142b8614264565b5b82820490509291505056fea26469706673582212207b9e8184720d2b66d9c30e341833a276d10b577e6ad0a4d1102d9c1c2e9c76a064736f6c63430008140033",
  "linkReferences": {},
  "deployedLinkReferences": {}
}