{
  "contractName": "IOTData",
  "abi": [
    {
      "inputs": [
        {
          "internalType": "address",
          "name": "organDonationContract",
          "type": "address"
        }
      ],
      "stateMutability": "nonpayable",
      "type": "constructor"
    },
    {
      "anonymous": false,
      "inputs": [
        {
          "indexed": false,
          "internalType": "uint256",
          "name": "requestId",
          "type": "uint256"
        },
        {
          "indexed": false,
          "internalType": "string",
          "name": "message",
          "type": "string"
        }
      ],
      "name": "IOTDataSaved",
      "type": "event"
    },
    {
      "inputs": [
        {
          "internalType": "uint256",
          "name": "requestID",
          "type": "uint256"
        },
        {
          "internalType": "string",
          "name": "_vibration",
          "type": "string"
        },
        {
          "internalType": "string",
          "name": "_orientation",
          "type": "string"
        },
        {
          "internalType": "string",
          "name": "_temprature",
          "type": "string"
        },
        {
          "internalType": "string",
          "name": "_intensity",
          "type": "string"
        },
        {
          "internalType": "string",
          "name": "_humidity",
          "type": "string"
        },
        {
          "internalType": "bool",
          "name": "_opencloserstate",
          "type": "bool"
        }
      ],
      "name": "setSensorData",
      "outputs": [],
      "stateMutability": "nonpayable",
      "type": "function"
    },
    {
      "inputs": [
        {
          "internalType": "uint256",
          "name": "requestID",
          "type": "uint256"
        }
      ],
      "name": "getSensorData",
      "outputs": [
        {
          "components": [
            {
              "internalType": "string",
              "name": "vibration",
              "type": "string"
            },
            {
              "internalType": "string",
              "name": "orientation",
              "type": "string"
            },
            {
              "internalType": "string",
              "name": "temprature",
              "type": "string"
            },
            {
              "internalType": "string",
              "name": "intensity",
              "type": "string"
            },
            {
              "internalType": "string",
              "name": "humidity",
              "type": "string"
            },
            {
              "internalType": "bool",
              "name": "opencloserstate",
              "type": "bool"
            }
          ],
          "internalType": "struct IOTData.SensorData",
          "name": "",
          "type": "tuple"
        }
      ],
      "stateMutability": "view",
      "type": "function",
      "constant": true
    }
  ],
  "bytecode": "0x608060405234801561001057600080fd5b50604051610c82380380610c82833981810160405281019061003291906100db565b806000806101000a81548173ffffffffffffffffffffffffffffffffffffffff021916908373ffffffffffffffffffffffffffffffffffffffff16021790555050610108565b600080fd5b600073ffffffffffffffffffffffffffffffffffffffff82169050919050565b60006100a88261007d565b9050919050565b6100b88161009d565b81146100c357600080fd5b50565b6000815190506100d5816100af565b92915050565b6000602082840312156100f1576100f0610078565b5b60006100ff848285016100c6565b91505092915050565b610b6b806101176000396000f3fe608060405234801561001057600080fd5b50600436106100365760003560e01c8063b059bf831461003b578063ed044aa314610057575b600080fd5b61005560048036038101906100509190610782565b610087565b005b610071600480360381019061006c91906108b0565b6101bd565b60405161007e9190610a19565b60405180910390f35b6040518060c001604052808781526020018681526020018581526020018481526020018381526020018215158152506001600089815260200190815260200160002060008201518160000190805190602001906100e59291906104df565b5060208201518160010190805190602001906101029291906104df565b50604082015181600201908051906020019061011f9291906104df565b50606082015181600301908051906020019061013c9291906104df565b5060808201518160040190805190602001906101599291906104df565b5060a08201518160050160006101000a81548160ff0219169083151502179055509050507f4463091c200c0fecf95a09074e4d8ff6a5b56daeb74da82bb9be2aaacda543bf876040516101ac9190610aa7565b60405180910390a150505050505050565b6101c5610565565b600160008381526020019081526020016000206040518060c00160405290816000820180546101f390610b04565b80601f016020809104026020016040519081016040528092919081815260200182805461021f90610b04565b801561026c5780601f106102415761010080835404028352916020019161026c565b820191906000526020600020905b81548152906001019060200180831161024f57829003601f168201915b5050505050815260200160018201805461028590610b04565b80601f01602080910402602001604051908101604052809291908181526020018280546102b190610b04565b80156102fe5780601f106102d3576101008083540402835291602001916102fe565b820191906000526020600020905b8154815290600101906020018083116102e157829003601f168201915b5050505050815260200160028201805461031790610b04565b80601f016020809104026020016040519081016040528092919081815260200182805461034390610b04565b80156103905780601f1061036557610100808354040283529160200191610390565b820191906000526020600020905b81548152906001019060200180831161037357829003601f168201915b505050505081526020016003820180546103a990610b04565b80601f01602080910402602001604051908101604052809291908181526020018280546103d590610b04565b80156104225780601f106103f757610100808354040283529160200191610422565b820191906000526020600020905b81548152906001019060200180831161040557829003601f168201915b5050505050815260200160048201805461043b90610b04565b80601f016020809104026020016040519081016040528092919081815260200182805461046790610b04565b80156104b45780601f10610489576101008083540402835291602001916104b4565b820191906000526020600020905b81548152906001019060200180831161049757829003601f168201915b505050505081526020016005820160009054906101000a900460ff1615151515815250509050919050565b8280546104eb90610b04565b90600052602060002090601f01602090048101928261050d5760008555610554565b82601f1061052657805160ff1916838001178555610554565b82800160010185558215610554579182015b82811115610553578251825591602001919060010190610538565b5b509050610561919061059d565b5090565b6040518060c0016040528060608152602001606081526020016060815260200160608152602001606081526020016000151581525090565b5b808211156105b657600081600090555060010161059e565b5090565b6000604051905090565b600080fd5b600080fd5b6000819050919050565b6105e1816105ce565b81146105ec57600080fd5b50565b6000813590506105fe816105d8565b92915050565b600080fd5b600080fd5b6000601f19601f8301169050919050565b7f4e487b7100000000000000000000000000000000000000000000000000000000600052604160045260246000fd5b6106578261060e565b810181811067ffffffffffffffff821117156106765761067561061f565b5b80604052505050565b60006106896105ba565b9050610695828261064e565b919050565b600067ffffffffffffffff8211156106b5576106b461061f565b5b6106be8261060e565b9050602081019050919050565b82818337600083830152505050565b60006106ed6106e88461069a565b61067f565b90508281526020810184848401111561070957610708610609565b5b6107148482856106cb565b509392505050565b600082601f83011261073157610730610604565b5b81356107418482602086016106da565b91505092915050565b60008115159050919050565b61075f8161074a565b811461076a57600080fd5b50565b60008135905061077c81610756565b92915050565b600080600080600080600060e0888a0312156107a1576107a06105c4565b5b60006107af8a828b016105ef565b975050602088013567ffffffffffffffff8111156107d0576107cf6105c9565b5b6107dc8a828b0161071c565b965050604088013567ffffffffffffffff8111156107fd576107fc6105c9565b5b6108098a828b0161071c565b955050606088013567ffffffffffffffff81111561082a576108296105c9565b5b6108368a828b0161071c565b945050608088013567ffffffffffffffff811115610857576108566105c9565b5b6108638a828b0161071c565b93505060a088013567ffffffffffffffff811115610884576108836105c9565b5b6108908a828b0161071c565b92505060c06108a18a828b0161076d565b91505092959891949750929550565b6000602082840312156108c6576108c56105c4565b5b60006108d4848285016105ef565b91505092915050565b600081519050919050565b600082825260208201905092915050565b60005b838110156109175780820151818401526020810190506108fc565b83811115610926576000848401525b50505050565b6000610937826108dd565b61094181856108e8565b93506109518185602086016108f9565b61095a8161060e565b840191505092915050565b61096e8161074a565b82525050565b600060c0830160008301518482036000860152610991828261092c565b915050602083015184820360208601526109ab828261092c565b915050604083015184820360408601526109c5828261092c565b915050606083015184820360608601526109df828261092c565b915050608083015184820360808601526109f9828261092c565b91505060a0830151610a0e60a0860182610965565b508091505092915050565b60006020820190508181036000830152610a338184610974565b905092915050565b610a44816105ce565b82525050565b600082825260208201905092915050565b7f494f54204461746120736176656420696e20636f6e7472616374000000000000600082015250565b6000610a91601a83610a4a565b9150610a9c82610a5b565b602082019050919050565b6000604082019050610abc6000830184610a3b565b8181036020830152610acd81610a84565b905092915050565b7f4e487b7100000000000000000000000000000000000000000000000000000000600052602260045260246000fd5b60006002820490506001821680610b1c57607f821691505b602082108103610b2f57610b2e610ad5565b5b5091905056fea264697066735822122023e9c2d400e3b0a56728b371faae06e34cf4bc3a1d8948ba6011a53b5fd5517f64736f6c634300080d0033",
  "immutableReferences": {},
  "source": "// SPDX-License-Identifier: MIT\npragma solidity ^0.8.3;\n\nimport \"./IOrganDonationRequest.sol\";\n\n//** IOT smart contract, this smart contract accepts requestID and updates sensor data */\ncontract IOTData {\n    IOrganDonation organDonation;\n\n    constructor(address organDonationContract) {\n        organDonation = IOrganDonation(organDonationContract);\n    }\n\n    struct SensorData {\n        string vibration;\n        string orientation;\n        string temprature;\n        string intensity;\n        string humidity;\n        bool opencloserstate;\n    }\n\n    mapping(uint => SensorData) requestTosensorData;\n\n    event IOTDataSaved(uint requestId, string message);\n\n    //** Function to set sensor data for specific request ID */\n    function setSensorData(\n        uint requestID,\n        string memory _vibration,\n        string memory _orientation,\n        string memory _temprature,\n        string memory _intensity,\n        string memory _humidity,\n        bool _opencloserstate\n    ) external {\n        // require(organDonation.isValidRequestID(requestID) && organDonation.getRequestStatus(requestID) == IOrganDonation.Status.DONOR_ORGAN_SHIPPED,\"Invalid update request\");\n        requestTosensorData[requestID] = SensorData(\n            _vibration,\n            _orientation,\n            _temprature,\n            _intensity,\n            _humidity,\n            _opencloserstate\n        );\n\n        emit IOTDataSaved(requestID, \"IOT Data saved in contract\");\n    }\n\n    //** function to get sensor data corresponding to specific requestID */\n    function getSensorData(\n        uint requestID\n    ) external view returns (SensorData memory) {\n        return requestTosensorData[requestID];\n    }\n}\n",
  "sourcePath": "/home/shubham/PROJECT/medical-freelance/smart_contract/contracts/IOTSmartContract.sol",
  "compiler": {
    "name": "solc",
    "version": "0.8.13+commit.abaa5c0e.Emscripten.clang"
  },
  "schemaVersion": "3.4.10",
  "updatedAt": "2023-09-08T04:15:51.085Z",
  "networkType": "ethereum",
  "devdoc": {
    "kind": "dev",
    "methods": {},
    "version": 1
  },
  "userdoc": {
    "kind": "user",
    "methods": {},
    "version": 1
  }
}