{
  "contractName": "UserRegistry",
  "abi": [
    {
      "inputs": [],
      "stateMutability": "nonpayable",
      "type": "constructor"
    },
    {
      "anonymous": false,
      "inputs": [
        {
          "indexed": false,
          "internalType": "uint256",
          "name": "hospitalID",
          "type": "uint256"
        },
        {
          "indexed": true,
          "internalType": "address",
          "name": "hospitalAddress",
          "type": "address"
        },
        {
          "indexed": false,
          "internalType": "string",
          "name": "message",
          "type": "string"
        }
      ],
      "name": "HospitalRegistered",
      "type": "event"
    },
    {
      "anonymous": false,
      "inputs": [
        {
          "indexed": true,
          "internalType": "address",
          "name": "userAddress",
          "type": "address"
        },
        {
          "indexed": false,
          "internalType": "string",
          "name": "message",
          "type": "string"
        }
      ],
      "name": "userRegistered",
      "type": "event"
    },
    {
      "inputs": [
        {
          "internalType": "address",
          "name": "",
          "type": "address"
        }
      ],
      "name": "Users",
      "outputs": [
        {
          "internalType": "uint256",
          "name": "userID",
          "type": "uint256"
        },
        {
          "internalType": "enum UserRegistry.Bloodtype",
          "name": "bloodGroup",
          "type": "uint8"
        },
        {
          "internalType": "uint256",
          "name": "BMI",
          "type": "uint256"
        },
        {
          "internalType": "address",
          "name": "hospitalAddress",
          "type": "address"
        },
        {
          "internalType": "enum UserRegistry.UserRole",
          "name": "userType",
          "type": "uint8"
        }
      ],
      "stateMutability": "view",
      "type": "function",
      "constant": true
    },
    {
      "inputs": [
        {
          "internalType": "address",
          "name": "",
          "type": "address"
        }
      ],
      "name": "hospitals",
      "outputs": [
        {
          "internalType": "uint256",
          "name": "hospitalID",
          "type": "uint256"
        },
        {
          "internalType": "string",
          "name": "name",
          "type": "string"
        },
        {
          "internalType": "address",
          "name": "hospitalAddress",
          "type": "address"
        },
        {
          "internalType": "bool",
          "name": "isRegistered",
          "type": "bool"
        }
      ],
      "stateMutability": "view",
      "type": "function",
      "constant": true
    },
    {
      "inputs": [],
      "name": "hospitalsCount",
      "outputs": [
        {
          "internalType": "uint256",
          "name": "",
          "type": "uint256"
        }
      ],
      "stateMutability": "view",
      "type": "function",
      "constant": true
    },
    {
      "inputs": [
        {
          "internalType": "address",
          "name": "_userAddress",
          "type": "address"
        },
        {
          "internalType": "enum UserRegistry.Bloodtype",
          "name": "_bloodtype",
          "type": "uint8"
        },
        {
          "internalType": "uint256",
          "name": "_bmi",
          "type": "uint256"
        },
        {
          "internalType": "enum UserRegistry.UserRole",
          "name": "_userType",
          "type": "uint8"
        },
        {
          "internalType": "enum UserRegistry.OrganType[]",
          "name": "organs",
          "type": "uint8[]"
        }
      ],
      "name": "registerUser",
      "outputs": [],
      "stateMutability": "nonpayable",
      "type": "function"
    },
    {
      "inputs": [
        {
          "internalType": "address",
          "name": "hospitalAddress",
          "type": "address"
        },
        {
          "internalType": "string",
          "name": "_name",
          "type": "string"
        }
      ],
      "name": "registerHospital",
      "outputs": [],
      "stateMutability": "nonpayable",
      "type": "function"
    },
    {
      "inputs": [
        {
          "internalType": "address",
          "name": "_userAddress",
          "type": "address"
        },
        {
          "internalType": "uint256",
          "name": "_bmi",
          "type": "uint256"
        },
        {
          "internalType": "enum UserRegistry.Bloodtype",
          "name": "_bloodType",
          "type": "uint8"
        }
      ],
      "name": "switchDonorToPatient",
      "outputs": [],
      "stateMutability": "nonpayable",
      "type": "function"
    },
    {
      "inputs": [
        {
          "internalType": "address",
          "name": "_userAddress",
          "type": "address"
        },
        {
          "internalType": "enum UserRegistry.OrganType[]",
          "name": "organList",
          "type": "uint8[]"
        },
        {
          "internalType": "uint256",
          "name": "_bmi",
          "type": "uint256"
        },
        {
          "internalType": "enum UserRegistry.Bloodtype",
          "name": "_bloodType",
          "type": "uint8"
        }
      ],
      "name": "switchPatientToDonor",
      "outputs": [],
      "stateMutability": "nonpayable",
      "type": "function"
    },
    {
      "inputs": [
        {
          "internalType": "address",
          "name": "_userAddress",
          "type": "address"
        }
      ],
      "name": "getUser",
      "outputs": [
        {
          "components": [
            {
              "internalType": "uint256",
              "name": "userID",
              "type": "uint256"
            },
            {
              "internalType": "enum UserRegistry.Bloodtype",
              "name": "bloodGroup",
              "type": "uint8"
            },
            {
              "internalType": "uint256",
              "name": "BMI",
              "type": "uint256"
            },
            {
              "internalType": "address",
              "name": "hospitalAddress",
              "type": "address"
            },
            {
              "internalType": "uint256[]",
              "name": "organRefusalList",
              "type": "uint256[]"
            },
            {
              "internalType": "enum UserRegistry.UserRole",
              "name": "userType",
              "type": "uint8"
            }
          ],
          "internalType": "struct UserRegistry.User",
          "name": "",
          "type": "tuple"
        },
        {
          "internalType": "enum UserRegistry.OrganStatus[]",
          "name": "",
          "type": "uint8[]"
        }
      ],
      "stateMutability": "view",
      "type": "function",
      "constant": true
    },
    {
      "inputs": [
        {
          "internalType": "address",
          "name": "_hospitalAddress",
          "type": "address"
        }
      ],
      "name": "getHosptial",
      "outputs": [
        {
          "components": [
            {
              "internalType": "uint256",
              "name": "hospitalID",
              "type": "uint256"
            },
            {
              "internalType": "string",
              "name": "name",
              "type": "string"
            },
            {
              "internalType": "address",
              "name": "hospitalAddress",
              "type": "address"
            },
            {
              "internalType": "bool",
              "name": "isRegistered",
              "type": "bool"
            }
          ],
          "internalType": "struct UserRegistry.Hospital",
          "name": "",
          "type": "tuple"
        }
      ],
      "stateMutability": "view",
      "type": "function",
      "constant": true
    },
    {
      "inputs": [
        {
          "internalType": "address",
          "name": "_donorAddress",
          "type": "address"
        },
        {
          "internalType": "uint256",
          "name": "_organType",
          "type": "uint256"
        }
      ],
      "name": "checkOrganAvaiablity",
      "outputs": [
        {
          "internalType": "uint256",
          "name": "",
          "type": "uint256"
        }
      ],
      "stateMutability": "view",
      "type": "function",
      "constant": true
    },
    {
      "inputs": [
        {
          "internalType": "address",
          "name": "_donorAddress",
          "type": "address"
        },
        {
          "internalType": "uint256",
          "name": "_organType",
          "type": "uint256"
        }
      ],
      "name": "markOrganDonated",
      "outputs": [
        {
          "internalType": "bool",
          "name": "",
          "type": "bool"
        }
      ],
      "stateMutability": "nonpayable",
      "type": "function"
    },
    {
      "inputs": [
        {
          "internalType": "address",
          "name": "patientAddress",
          "type": "address"
        },
        {
          "internalType": "uint256",
          "name": "requestID",
          "type": "uint256"
        },
        {
          "internalType": "address",
          "name": "_donorAddress",
          "type": "address"
        },
        {
          "internalType": "uint256",
          "name": "_organType",
          "type": "uint256"
        }
      ],
      "name": "addRefusal",
      "outputs": [],
      "stateMutability": "nonpayable",
      "type": "function"
    },
    {
      "inputs": [
        {
          "internalType": "address",
          "name": "_hospitalAddress",
          "type": "address"
        }
      ],
      "name": "isHospitalRegistered",
      "outputs": [
        {
          "internalType": "bool",
          "name": "",
          "type": "bool"
        }
      ],
      "stateMutability": "view",
      "type": "function",
      "constant": true
    }
  ],
  "bytecode": "0x608060405234801561001057600080fd5b5060006004819055506000600581905550336000806101000a81548173ffffffffffffffffffffffffffffffffffffffff021916908373ffffffffffffffffffffffffffffffffffffffff160217905550612aef806100706000396000f3fe608060405234801561001057600080fd5b50600436106100cf5760003560e01c8063bc84243e1161008c578063d8d09d1b11610066578063d8d09d1b1461023b578063e4fa160c14610257578063f093cf8014610287578063f8d084a5146102ba576100cf565b8063bc84243e146101bd578063c557f69c146101ed578063c874d23d1461021d576100cf565b80634fbaa023146100d45780636f77926b146100f05780637c2356911461012157806399b956a014610151578063af077f6514610185578063bae85a5d146101a1575b600080fd5b6100ee60048036038101906100e99190611c1a565b6102d6565b005b61010a60048036038101906101059190611c76565b610572565b604051610118929190611fb9565b60405180910390f35b61013b6004803603810190610136919061201c565b610820565b604051610148919061206b565b60405180910390f35b61016b60048036038101906101669190611c76565b61089a565b60405161017c9594939291906120b3565b60405180910390f35b61019f600480360381019061019a919061223d565b61090a565b005b6101bb60048036038101906101b691906122d4565b610d93565b005b6101d760048036038101906101d29190611c76565b6110a2565b6040516101e49190612372565b60405180910390f35b6102076004803603810190610202919061201c565b6110fb565b6040516102149190612372565b60405180910390f35b61022561120e565b604051610232919061206b565b60405180910390f35b6102556004803603810190610250919061238d565b611214565b005b610271600480360381019061026c9190611c76565b61145c565b60405161027e91906124da565b60405180910390f35b6102a1600480360381019061029c9190611c76565b6115c2565b6040516102b19493929190612546565b60405180910390f35b6102d460048036038101906102cf9190612592565b6116a7565b005b60008054906101000a900473ffffffffffffffffffffffffffffffffffffffff1673ffffffffffffffffffffffffffffffffffffffff163373ffffffffffffffffffffffffffffffffffffffff1614610364576040517f08c379a000000000000000000000000000000000000000000000000000000000815260040161035b90612645565b60405180910390fd5b60001515600160008473ffffffffffffffffffffffffffffffffffffffff1673ffffffffffffffffffffffffffffffffffffffff16815260200190815260200160002060020160149054906101000a900460ff161515146103fa576040517f08c379a00000000000000000000000000000000000000000000000000000000081526004016103f1906126b1565b60405180910390fd5b6005600081548092919061040d90612700565b9190505550604051806080016040528060055481526020018281526020018373ffffffffffffffffffffffffffffffffffffffff16815260200160011515815250600160008473ffffffffffffffffffffffffffffffffffffffff1673ffffffffffffffffffffffffffffffffffffffff1681526020019081526020016000206000820151816000015560208201518160010190805190602001906104b39291906118c2565b5060408201518160020160006101000a81548173ffffffffffffffffffffffffffffffffffffffff021916908373ffffffffffffffffffffffffffffffffffffffff16021790555060608201518160020160146101000a81548160ff0219169083151502179055509050508173ffffffffffffffffffffffffffffffffffffffff167ff4f5917fdec8f2ae93dd79a5fe4b5b76c30534fb4abe4f82e84e8ed681b7de0a6005546040516105669190612794565b60405180910390a25050565b61057a611948565b60606000600260008573ffffffffffffffffffffffffffffffffffffffff1673ffffffffffffffffffffffffffffffffffffffff1681526020019081526020016000206040518060c0016040529081600082015481526020016001820160009054906101000a900460ff1660078111156105f7576105f6611cbc565b5b600781111561060957610608611cbc565b5b8152602001600282015481526020016003820160009054906101000a900473ffffffffffffffffffffffffffffffffffffffff1673ffffffffffffffffffffffffffffffffffffffff1673ffffffffffffffffffffffffffffffffffffffff168152602001600482018054806020026020016040519081016040528092919081815260200182805480156106bc57602002820191906000526020600020905b8154815260200190600101908083116106a8575b505050505081526020016005820160009054906101000a900460ff1660028111156106ea576106e9611cbc565b5b60028111156106fc576106fb611cbc565b5b8152505090506000600867ffffffffffffffff81111561071f5761071e611aef565b5b60405190808252806020026020018201604052801561074d5781602001602082028036833780820191505090505b50905060005b600881101561081257600360008773ffffffffffffffffffffffffffffffffffffffff1673ffffffffffffffffffffffffffffffffffffffff168152602001908152602001600020600082815260200190815260200160002060009054906101000a900460ff168282815181106107cd576107cc6127c2565b5b602002602001019060028111156107e7576107e6611cbc565b5b908160028111156107fb576107fa611cbc565b5b81525050808061080a90612700565b915050610753565b508181935093505050915091565b6000600360008473ffffffffffffffffffffffffffffffffffffffff1673ffffffffffffffffffffffffffffffffffffffff168152602001908152602001600020600083815260200190815260200160002060009054906101000a900460ff16600281111561089257610891611cbc565b5b905092915050565b60026020528060005260406000206000915090508060000154908060010160009054906101000a900460ff16908060020154908060030160009054906101000a900473ffffffffffffffffffffffffffffffffffffffff16908060050160009054906101000a900460ff16905085565b600160003373ffffffffffffffffffffffffffffffffffffffff1673ffffffffffffffffffffffffffffffffffffffff16815260200190815260200160002060020160149054906101000a900460ff16610999576040517f08c379a000000000000000000000000000000000000000000000000000000000815260040161099090612863565b60405180910390fd5b6000600260008773ffffffffffffffffffffffffffffffffffffffff1673ffffffffffffffffffffffffffffffffffffffff1681526020019081526020016000206000015414610a1e576040517f08c379a0000000000000000000000000000000000000000000000000000000008152600401610a15906128cf565b60405180910390fd5b60046000815480929190610a3190612700565b91905055506040518060c001604052806004548152602001856007811115610a5c57610a5b611cbc565b5b81526020018481526020013373ffffffffffffffffffffffffffffffffffffffff168152602001600067ffffffffffffffff811115610a9e57610a9d611aef565b5b604051908082528060200260200182016040528015610acc5781602001602082028036833780820191505090505b508152602001836002811115610ae557610ae4611cbc565b5b815250600260008773ffffffffffffffffffffffffffffffffffffffff1673ffffffffffffffffffffffffffffffffffffffff1681526020019081526020016000206000820151816000015560208201518160010160006101000a81548160ff02191690836007811115610b5c57610b5b611cbc565b5b02179055506040820151816002015560608201518160030160006101000a81548173ffffffffffffffffffffffffffffffffffffffff021916908373ffffffffffffffffffffffffffffffffffffffff1602179055506080820151816004019080519060200190610bce9291906119b8565b5060a08201518160050160006101000a81548160ff02191690836002811115610bfa57610bf9611cbc565b5b021790555090505060016002811115610c1657610c15611cbc565b5b826002811115610c2957610c28611cbc565b5b03610d405760005b8151811015610cf2576001600360008873ffffffffffffffffffffffffffffffffffffffff1673ffffffffffffffffffffffffffffffffffffffff1681526020019081526020016000206000848481518110610c9057610c8f6127c2565b5b60200260200101516007811115610caa57610ca9611cbc565b5b815260200190815260200160002060006101000a81548160ff02191690836002811115610cda57610cd9611cbc565b5b02179055508080610cea90612700565b915050610c31565b508473ffffffffffffffffffffffffffffffffffffffff167fe5d4ce58d70016e45a65c0ac4176f20836975b47dac57ed370c1e730c58d49fc604051610d379061293b565b60405180910390a25b8473ffffffffffffffffffffffffffffffffffffffff167fe5d4ce58d70016e45a65c0ac4176f20836975b47dac57ed370c1e730c58d49fc604051610d84906129a7565b60405180910390a25050505050565b600160003373ffffffffffffffffffffffffffffffffffffffff1673ffffffffffffffffffffffffffffffffffffffff16815260200190815260200160002060020160149054906101000a900460ff16610e22576040517f08c379a0000000000000000000000000000000000000000000000000000000008152600401610e1990612863565b60405180910390fd5b6001600260008673ffffffffffffffffffffffffffffffffffffffff1673ffffffffffffffffffffffffffffffffffffffff16815260200190815260200160002060050160006101000a81548160ff02191690836002811115610e8857610e87611cbc565b5b021790555081600260008673ffffffffffffffffffffffffffffffffffffffff1673ffffffffffffffffffffffffffffffffffffffff1681526020019081526020016000206002018190555080600260008673ffffffffffffffffffffffffffffffffffffffff1673ffffffffffffffffffffffffffffffffffffffff16815260200190815260200160002060010160006101000a81548160ff02191690836007811115610f3957610f38611cbc565b5b021790555060005b6008811015610fd6576000600360008773ffffffffffffffffffffffffffffffffffffffff1673ffffffffffffffffffffffffffffffffffffffff168152602001908152602001600020600083815260200190815260200160002060006101000a81548160ff02191690836002811115610fbe57610fbd611cbc565b5b02179055508080610fce90612700565b915050610f41565b5060005b835181101561109b576001600360008773ffffffffffffffffffffffffffffffffffffffff1673ffffffffffffffffffffffffffffffffffffffff1681526020019081526020016000206000868481518110611039576110386127c2565b5b6020026020010151600781111561105357611052611cbc565b5b815260200190815260200160002060006101000a81548160ff0219169083600281111561108357611082611cbc565b5b0217905550808061109390612700565b915050610fda565b5050505050565b6000600160008373ffffffffffffffffffffffffffffffffffffffff1673ffffffffffffffffffffffffffffffffffffffff16815260200190815260200160002060020160149054906101000a900460ff169050919050565b60006001600281111561111157611110611cbc565b5b600360008573ffffffffffffffffffffffffffffffffffffffff1673ffffffffffffffffffffffffffffffffffffffff168152602001908152602001600020600084815260200190815260200160002060009054906101000a900460ff16600281111561118157611180611cbc565b5b1461118b57600080fd5b6002600360008573ffffffffffffffffffffffffffffffffffffffff1673ffffffffffffffffffffffffffffffffffffffff168152602001908152602001600020600084815260200190815260200160002060006101000a81548160ff021916908360028111156111ff576111fe611cbc565b5b02179055506001905092915050565b60055481565b600160003373ffffffffffffffffffffffffffffffffffffffff1673ffffffffffffffffffffffffffffffffffffffff16815260200190815260200160002060020160149054906101000a900460ff166112a3576040517f08c379a000000000000000000000000000000000000000000000000000000000815260040161129a90612863565b60405180910390fd5b60028060008573ffffffffffffffffffffffffffffffffffffffff1673ffffffffffffffffffffffffffffffffffffffff16815260200190815260200160002060050160006101000a81548160ff0219169083600281111561130857611307611cbc565b5b021790555081600260008573ffffffffffffffffffffffffffffffffffffffff1673ffffffffffffffffffffffffffffffffffffffff1681526020019081526020016000206002018190555080600260008573ffffffffffffffffffffffffffffffffffffffff1673ffffffffffffffffffffffffffffffffffffffff16815260200190815260200160002060010160006101000a81548160ff021916908360078111156113b9576113b8611cbc565b5b021790555060005b6008811015611456576000600360008673ffffffffffffffffffffffffffffffffffffffff1673ffffffffffffffffffffffffffffffffffffffff168152602001908152602001600020600083815260200190815260200160002060006101000a81548160ff0219169083600281111561143e5761143d611cbc565b5b0217905550808061144e90612700565b9150506113c1565b50505050565b611464611a05565b600160008373ffffffffffffffffffffffffffffffffffffffff1673ffffffffffffffffffffffffffffffffffffffff168152602001908152602001600020604051806080016040529081600082015481526020016001820180546114c8906129f6565b80601f01602080910402602001604051908101604052809291908181526020018280546114f4906129f6565b80156115415780601f1061151657610100808354040283529160200191611541565b820191906000526020600020905b81548152906001019060200180831161152457829003601f168201915b505050505081526020016002820160009054906101000a900473ffffffffffffffffffffffffffffffffffffffff1673ffffffffffffffffffffffffffffffffffffffff1673ffffffffffffffffffffffffffffffffffffffff1681526020016002820160149054906101000a900460ff1615151515815250509050919050565b60016020528060005260406000206000915090508060000154908060010180546115eb906129f6565b80601f0160208091040260200160405190810160405280929190818152602001828054611617906129f6565b80156116645780601f1061163957610100808354040283529160200191611664565b820191906000526020600020905b81548152906001019060200180831161164757829003601f168201915b5050505050908060020160009054906101000a900473ffffffffffffffffffffffffffffffffffffffff16908060020160149054906101000a900460ff16905084565b600060028111156116bb576116ba611cbc565b5b600260008673ffffffffffffffffffffffffffffffffffffffff1673ffffffffffffffffffffffffffffffffffffffff16815260200190815260200160002060050160009054906101000a900460ff16600281111561171d5761171c611cbc565b5b148061179b575060028081111561173757611736611cbc565b5b600260008673ffffffffffffffffffffffffffffffffffffffff1673ffffffffffffffffffffffffffffffffffffffff16815260200190815260200160002060050160009054906101000a900460ff16600281111561179957611798611cbc565b5b145b6117da576040517f08c379a00000000000000000000000000000000000000000000000000000000081526004016117d190612a99565b60405180910390fd5b6001600360008473ffffffffffffffffffffffffffffffffffffffff1673ffffffffffffffffffffffffffffffffffffffff168152602001908152602001600020600083815260200190815260200160002060006101000a81548160ff0219169083600281111561184e5761184d611cbc565b5b0217905550600260008573ffffffffffffffffffffffffffffffffffffffff1673ffffffffffffffffffffffffffffffffffffffff16815260200190815260200160002060040183908060018154018082558091505060019003906000526020600020016000909190919091505550505050565b8280546118ce906129f6565b90600052602060002090601f0160209004810192826118f05760008555611937565b82601f1061190957805160ff1916838001178555611937565b82800160010185558215611937579182015b8281111561193657825182559160200191906001019061191b565b5b5090506119449190611a45565b5090565b6040518060c00160405280600081526020016000600781111561196e5761196d611cbc565b5b815260200160008152602001600073ffffffffffffffffffffffffffffffffffffffff16815260200160608152602001600060028111156119b2576119b1611cbc565b5b81525090565b8280548282559060005260206000209081019282156119f4579160200282015b828111156119f35782518255916020019190600101906119d8565b5b509050611a019190611a45565b5090565b60405180608001604052806000815260200160608152602001600073ffffffffffffffffffffffffffffffffffffffff1681526020016000151581525090565b5b80821115611a5e576000816000905550600101611a46565b5090565b6000604051905090565b600080fd5b600080fd5b600073ffffffffffffffffffffffffffffffffffffffff82169050919050565b6000611aa182611a76565b9050919050565b611ab181611a96565b8114611abc57600080fd5b50565b600081359050611ace81611aa8565b92915050565b600080fd5b600080fd5b6000601f19601f8301169050919050565b7f4e487b7100000000000000000000000000000000000000000000000000000000600052604160045260246000fd5b611b2782611ade565b810181811067ffffffffffffffff82111715611b4657611b45611aef565b5b80604052505050565b6000611b59611a62565b9050611b658282611b1e565b919050565b600067ffffffffffffffff821115611b8557611b84611aef565b5b611b8e82611ade565b9050602081019050919050565b82818337600083830152505050565b6000611bbd611bb884611b6a565b611b4f565b905082815260208101848484011115611bd957611bd8611ad9565b5b611be4848285611b9b565b509392505050565b600082601f830112611c0157611c00611ad4565b5b8135611c11848260208601611baa565b91505092915050565b60008060408385031215611c3157611c30611a6c565b5b6000611c3f85828601611abf565b925050602083013567ffffffffffffffff811115611c6057611c5f611a71565b5b611c6c85828601611bec565b9150509250929050565b600060208284031215611c8c57611c8b611a6c565b5b6000611c9a84828501611abf565b91505092915050565b6000819050919050565b611cb681611ca3565b82525050565b7f4e487b7100000000000000000000000000000000000000000000000000000000600052602160045260246000fd5b60088110611cfc57611cfb611cbc565b5b50565b6000819050611d0d82611ceb565b919050565b6000611d1d82611cff565b9050919050565b611d2d81611d12565b82525050565b611d3c81611a96565b82525050565b600081519050919050565b600082825260208201905092915050565b6000819050602082019050919050565b6000611d7a8383611cad565b60208301905092915050565b6000602082019050919050565b6000611d9e82611d42565b611da88185611d4d565b9350611db383611d5e565b8060005b83811015611de4578151611dcb8882611d6e565b9750611dd683611d86565b925050600181019050611db7565b5085935050505092915050565b60038110611e0257611e01611cbc565b5b50565b6000819050611e1382611df1565b919050565b6000611e2382611e05565b9050919050565b611e3381611e18565b82525050565b600060c083016000830151611e516000860182611cad565b506020830151611e646020860182611d24565b506040830151611e776040860182611cad565b506060830151611e8a6060860182611d33565b5060808301518482036080860152611ea28282611d93565b91505060a0830151611eb760a0860182611e2a565b508091505092915050565b600081519050919050565b600082825260208201905092915050565b6000819050602082019050919050565b60038110611eff57611efe611cbc565b5b50565b6000819050611f1082611eee565b919050565b6000611f2082611f02565b9050919050565b611f3081611f15565b82525050565b6000611f428383611f27565b60208301905092915050565b6000602082019050919050565b6000611f6682611ec2565b611f708185611ecd565b9350611f7b83611ede565b8060005b83811015611fac578151611f938882611f36565b9750611f9e83611f4e565b925050600181019050611f7f565b5085935050505092915050565b60006040820190508181036000830152611fd38185611e39565b90508181036020830152611fe78184611f5b565b90509392505050565b611ff981611ca3565b811461200457600080fd5b50565b60008135905061201681611ff0565b92915050565b6000806040838503121561203357612032611a6c565b5b600061204185828601611abf565b925050602061205285828601612007565b9150509250929050565b61206581611ca3565b82525050565b6000602082019050612080600083018461205c565b92915050565b61208f81611d12565b82525050565b61209e81611a96565b82525050565b6120ad81611e18565b82525050565b600060a0820190506120c8600083018861205c565b6120d56020830187612086565b6120e2604083018661205c565b6120ef6060830185612095565b6120fc60808301846120a4565b9695505050505050565b6008811061211357600080fd5b50565b60008135905061212581612106565b92915050565b6003811061213857600080fd5b50565b60008135905061214a8161212b565b92915050565b600067ffffffffffffffff82111561216b5761216a611aef565b5b602082029050602081019050919050565b600080fd5b6008811061218e57600080fd5b50565b6000813590506121a081612181565b92915050565b60006121b96121b484612150565b611b4f565b905080838252602082019050602084028301858111156121dc576121db61217c565b5b835b8181101561220557806121f18882612191565b8452602084019350506020810190506121de565b5050509392505050565b600082601f83011261222457612223611ad4565b5b81356122348482602086016121a6565b91505092915050565b600080600080600060a0868803121561225957612258611a6c565b5b600061226788828901611abf565b955050602061227888828901612116565b945050604061228988828901612007565b935050606061229a8882890161213b565b925050608086013567ffffffffffffffff8111156122bb576122ba611a71565b5b6122c78882890161220f565b9150509295509295909350565b600080600080608085870312156122ee576122ed611a6c565b5b60006122fc87828801611abf565b945050602085013567ffffffffffffffff81111561231d5761231c611a71565b5b6123298782880161220f565b935050604061233a87828801612007565b925050606061234b87828801612116565b91505092959194509250565b60008115159050919050565b61236c81612357565b82525050565b60006020820190506123876000830184612363565b92915050565b6000806000606084860312156123a6576123a5611a6c565b5b60006123b486828701611abf565b93505060206123c586828701612007565b92505060406123d686828701612116565b9150509250925092565b600081519050919050565b600082825260208201905092915050565b60005b8381101561241a5780820151818401526020810190506123ff565b83811115612429576000848401525b50505050565b600061243a826123e0565b61244481856123eb565b93506124548185602086016123fc565b61245d81611ade565b840191505092915050565b61247181612357565b82525050565b600060808301600083015161248f6000860182611cad565b50602083015184820360208601526124a7828261242f565b91505060408301516124bc6040860182611d33565b5060608301516124cf6060860182612468565b508091505092915050565b600060208201905081810360008301526124f48184612477565b905092915050565b600082825260208201905092915050565b6000612518826123e0565b61252281856124fc565b93506125328185602086016123fc565b61253b81611ade565b840191505092915050565b600060808201905061255b600083018761205c565b818103602083015261256d818661250d565b905061257c6040830185612095565b6125896060830184612363565b95945050505050565b600080600080608085870312156125ac576125ab611a6c565b5b60006125ba87828801611abf565b94505060206125cb87828801612007565b93505060406125dc87828801611abf565b92505060606125ed87828801612007565b91505092959194509250565b7f6f6e6c79206f776e65722063616e2063616c6c00000000000000000000000000600082015250565b600061262f6013836124fc565b915061263a826125f9565b602082019050919050565b6000602082019050818103600083015261265e81612622565b9050919050565b7f486f73706974616c20616c726561647920726567697374657265640000000000600082015250565b600061269b601b836124fc565b91506126a682612665565b602082019050919050565b600060208201905081810360008301526126ca8161268e565b9050919050565b7f4e487b7100000000000000000000000000000000000000000000000000000000600052601160045260246000fd5b600061270b82611ca3565b91507fffffffffffffffffffffffffffffffffffffffffffffffffffffffffffffffff820361273d5761273c6126d1565b5b600182019050919050565b7f686f73706974616c207265676973746572656400000000000000000000000000600082015250565b600061277e6013836124fc565b915061278982612748565b602082019050919050565b60006040820190506127a9600083018461205c565b81810360208301526127ba81612771565b905092915050565b7f4e487b7100000000000000000000000000000000000000000000000000000000600052603260045260246000fd5b7f4f6e6c79207265676973746572656420686f73706974616c732063616e20636160008201527f6c6c20746869732066756e6374696f6e00000000000000000000000000000000602082015250565b600061284d6030836124fc565b9150612858826127f1565b604082019050919050565b6000602082019050818103600083015261287c81612840565b9050919050565b7f5573657220697320616c72656164792072656769737465726564000000000000600082015250565b60006128b9601a836124fc565b91506128c482612883565b602082019050919050565b600060208201905081810360008301526128e8816128ac565b9050919050565b7f446f6e6f7220526567697374657265642053756365737366756c6c7900000000600082015250565b6000612925601c836124fc565b9150612930826128ef565b602082019050919050565b6000602082019050818103600083015261295481612918565b9050919050565b7f50617469656e7420526567697374657265642053756365737366756c6c790000600082015250565b6000612991601e836124fc565b915061299c8261295b565b602082019050919050565b600060208201905081810360008301526129c081612984565b9050919050565b7f4e487b7100000000000000000000000000000000000000000000000000000000600052602260045260246000fd5b60006002820490506001821680612a0e57607f821691505b602082108103612a2157612a206129c7565b5b50919050565b7f4f6e6c7920646f63746f7273206f722070617469656e74732063616e2072656660008201527f7573650000000000000000000000000000000000000000000000000000000000602082015250565b6000612a836023836124fc565b9150612a8e82612a27565b604082019050919050565b60006020820190508181036000830152612ab281612a76565b905091905056fea2646970667358221220ab7bc0c9fd0bd9231e36b93217471aa83927ee2ac4eddbca9a3f6363c7867cac64736f6c634300080d0033",
  "immutableReferences": {},
  "source": "// SPDX-License-Identifier: MIT\npragma solidity ^0.8.13;\n\ncontract UserRegistry {\n    address owner;\n\n    enum Bloodtype {\n        // Same Enum to be maintained on backend system also\n        A_positive, // 0\n        A_negative, // 1\n        B_positive, // 2\n        B_negative, // 3\n        O_positive, // 4\n        O_negative, // 5\n        AB_positive, // 6\n        AB_negative // 7\n    }\n\n    enum OrganType {\n        Cornea, //0\n        Kidneys, //1\n        Heart, //2\n        Liver, //3\n        Lungs, //4\n        Pancreas, //5\n        SmallIntestine, //6\n        Skin //7\n    }\n\n    enum UrgencyType {\n        Low, //0\n        Medium, //1\n        High //2\n    }\n\n    enum OrganStatus {\n        NotListed, //0\n        Available, //1\n        Donated //2\n    }\n\n    enum UserRole {\n        Doctor, //0\n        Donor, //1\n        Patient //2\n    }\n\n    struct User {\n        uint userID;\n        Bloodtype bloodGroup;\n        uint256 BMI;\n        address hospitalAddress;\n        uint256[] organRefusalList;\n        UserRole userType;\n    }\n\n    struct Hospital {\n        uint256 hospitalID;\n        string name;\n        address hospitalAddress;\n        bool isRegistered;\n    }\n\n    mapping(address => Hospital) public hospitals;\n    mapping(address => User) public Users;\n    mapping(address => mapping(uint => OrganStatus)) organDonatedStatus; //uint will be represented\n\n    uint256 userCount;\n    uint256 public hospitalsCount;\n\n    event userRegistered(address indexed userAddress, string message);\n    event HospitalRegistered(\n        uint256 hospitalID,\n        address indexed hospitalAddress,\n        string message\n    );\n\n    constructor() {\n        userCount = 0;\n        hospitalsCount = 0;\n        owner = msg.sender;\n    }\n\n    modifier ownerOnly() {\n        require(msg.sender == owner, \"only owner can call\");\n        _;\n    }\n\n    modifier hospitalOnly() {\n        require(\n            hospitals[msg.sender].isRegistered,\n            \"Only registered hospitals can call this function\"\n        );\n        _;\n    }\n\n    function registerUser(\n        address _userAddress,\n        Bloodtype _bloodtype,\n        uint256 _bmi,\n        UserRole _userType,\n        OrganType[] memory organs\n    ) public hospitalOnly {\n        require(Users[_userAddress].userID == 0, \"User is already registered\");\n        userCount++;\n        Users[_userAddress] = User(\n            userCount,\n            _bloodtype,\n            _bmi,\n            msg.sender,\n            new uint256[](0),\n            _userType\n        );\n        if (_userType == UserRole.Donor) {\n            for (uint i = 0; i < organs.length; i++) {\n                organDonatedStatus[_userAddress][\n                    uint256(organs[i])\n                ] = OrganStatus.Available;\n            }\n            emit userRegistered(_userAddress, \"Donor Registered Sucessfully\");\n        }\n        emit userRegistered(_userAddress, \"Patient Registered Sucessfully\");\n    }\n\n    function registerHospital(\n        address hospitalAddress,\n        string memory _name\n    ) external ownerOnly {\n        require(\n            hospitals[hospitalAddress].isRegistered == false,\n            \"Hospital already registered\"\n        );\n        hospitalsCount++;\n        hospitals[hospitalAddress] = Hospital(\n            hospitalsCount,\n            _name,\n            hospitalAddress,\n            true\n        );\n\n        emit HospitalRegistered(\n            hospitalsCount,\n            hospitalAddress,\n            \"hospital registered\"\n        );\n    }\n\n    function switchDonorToPatient(\n        address _userAddress,\n        uint256 _bmi,\n        Bloodtype _bloodType\n    ) external hospitalOnly {\n        Users[_userAddress].userType = UserRole.Patient;\n        Users[_userAddress].BMI = _bmi;\n        Users[_userAddress].bloodGroup = _bloodType;\n        for (uint i = 0; i < 8; i++) {\n            organDonatedStatus[_userAddress][i] = OrganStatus.NotListed;\n        }\n    }\n\n    function switchPatientToDonor(\n        address _userAddress,\n        OrganType[] memory organList,\n        uint256 _bmi,\n        Bloodtype _bloodType\n    ) external hospitalOnly {\n        Users[_userAddress].userType = UserRole.Donor;\n        Users[_userAddress].BMI = _bmi;\n        Users[_userAddress].bloodGroup = _bloodType;\n        \n        for (uint i = 0; i < 8; i++) {\n            organDonatedStatus[_userAddress][i] = OrganStatus.NotListed;\n        }\n\n        for (uint i = 0; i < organList.length; i++) {\n            organDonatedStatus[_userAddress][\n                uint256(organList[i])\n            ] = OrganStatus.Available;\n        }\n    }\n\n    function getUser(\n        address _userAddress\n    ) external view returns (User memory, OrganStatus[] memory) {\n        User memory user = Users[_userAddress];\n        OrganStatus[] memory organStatusList = new OrganStatus[](8);\n\n        for (uint i = 0; i < 8; i++) {\n            organStatusList[i] = organDonatedStatus[_userAddress][i];\n        }\n        return (user, organStatusList);\n    }\n\n    function getHosptial(\n        address _hospitalAddress\n    ) public view returns (Hospital memory) {\n        return hospitals[_hospitalAddress];\n    }\n\n    function checkOrganAvaiablity(\n        address _donorAddress,\n        uint _organType\n    ) public view returns (uint256) {\n        return uint256(organDonatedStatus[_donorAddress][_organType]);\n    }\n\n    function markOrganDonated(\n        address _donorAddress,\n        uint256 _organType\n    ) external returns (bool) {\n        require(\n            organDonatedStatus[_donorAddress][_organType] ==\n                OrganStatus.Available\n        );\n        organDonatedStatus[_donorAddress][_organType] = OrganStatus.Donated;\n        return true;\n    }\n\n    function addRefusal(\n        address patientAddress,\n        uint256 requestID,\n        address _donorAddress,\n        uint256 _organType\n    ) external {\n        require(\n            Users[patientAddress].userType == UserRole.Doctor ||\n                Users[patientAddress].userType == UserRole.Patient,\n            \"Only doctors or patients can refuse\"\n        );\n        organDonatedStatus[_donorAddress][_organType] = OrganStatus.Available;\n        Users[patientAddress].organRefusalList.push(requestID);\n    }\n\n    function isHospitalRegistered(\n        address _hospitalAddress\n    ) public view returns (bool) {\n        return hospitals[_hospitalAddress].isRegistered;\n    }\n}\n",
  "sourcePath": "/home/shubham/PROJECT/medical-freelance/smart_contract/contracts/UserRegistry.sol",
  "compiler": {
    "name": "solc",
    "version": "0.8.13+commit.abaa5c0e.Emscripten.clang"
  },
  "schemaVersion": "3.4.10",
  "updatedAt": "2023-09-08T04:15:51.057Z",
  "networkType": "ethereum",
  "devdoc": {
    "kind": "dev",
    "methods": {},
    "version": 1
  },
  "userdoc": {
    "kind": "user",
    "methods": {},
    "version": 1
  }
}