{
  "_format": "hh-sol-artifact-1",
  "contractName": "IOTData",
  "sourceName": "contracts/IOTSmartContract.sol",
  "abi": [
    {
      "inputs": [
        {
          "internalType": "address",
          "name": "organDonationContract",
          "type": "address"
        }
      ],
      "stateMutability": "nonpayable",
      "type": "constructor"
    },
    {
      "anonymous": false,
      "inputs": [
        {
          "indexed": false,
          "internalType": "uint256",
          "name": "requestId",
          "type": "uint256"
        },
        {
          "indexed": false,
          "internalType": "string",
          "name": "message",
          "type": "string"
        }
      ],
      "name": "IOTDataSaved",
      "type": "event"
    },
    {
      "inputs": [
        {
          "internalType": "uint256",
          "name": "requestID",
          "type": "uint256"
        }
      ],
      "name": "getSensorData",
      "outputs": [
        {
          "components": [
            {
              "internalType": "string",
              "name": "vibration",
              "type": "string"
            },
            {
              "internalType": "string",
              "name": "orientation",
              "type": "string"
            },
            {
              "internalType": "string",
              "name": "temprature",
              "type": "string"
            },
            {
              "internalType": "string",
              "name": "intensity",
              "type": "string"
            },
            {
              "internalType": "string",
              "name": "humidity",
              "type": "string"
            },
            {
              "internalType": "bool",
              "name": "opencloserstate",
              "type": "bool"
            }
          ],
          "internalType": "struct IOTData.SensorData",
          "name": "",
          "type": "tuple"
        }
      ],
      "stateMutability": "view",
      "type": "function"
    },
    {
      "inputs": [
        {
          "internalType": "uint256",
          "name": "requestID",
          "type": "uint256"
        },
        {
          "internalType": "string",
          "name": "_vibration",
          "type": "string"
        },
        {
          "internalType": "string",
          "name": "_orientation",
          "type": "string"
        },
        {
          "internalType": "string",
          "name": "_temprature",
          "type": "string"
        },
        {
          "internalType": "string",
          "name": "_intensity",
          "type": "string"
        },
        {
          "internalType": "string",
          "name": "_humidity",
          "type": "string"
        },
        {
          "internalType": "bool",
          "name": "_opencloserstate",
          "type": "bool"
        }
      ],
      "name": "setSensorData",
      "outputs": [],
      "stateMutability": "nonpayable",
      "type": "function"
    }
  ],
  "bytecode": "0x608060405234801561001057600080fd5b50604051610e31380380610e31833981810160405281019061003291906100db565b806000806101000a81548173ffffffffffffffffffffffffffffffffffffffff021916908373ffffffffffffffffffffffffffffffffffffffff16021790555050610108565b600080fd5b600073ffffffffffffffffffffffffffffffffffffffff82169050919050565b60006100a88261007d565b9050919050565b6100b88161009d565b81146100c357600080fd5b50565b6000815190506100d5816100af565b92915050565b6000602082840312156100f1576100f0610078565b5b60006100ff848285016100c6565b91505092915050565b610d1a806101176000396000f3fe608060405234801561001057600080fd5b50600436106100365760003560e01c8063b059bf831461003b578063ed044aa314610057575b600080fd5b610055600480360381019061005091906106bc565b610087565b005b610071600480360381019061006c91906107ea565b61019a565b60405161007e919061094a565b60405180910390f35b6040518060c001604052808781526020018681526020018581526020018481526020018381526020018215158152506001600089815260200190815260200160002060008201518160000190816100de9190610b78565b5060208201518160010190816100f49190610b78565b50604082015181600201908161010a9190610b78565b5060608201518160030190816101209190610b78565b5060808201518160040190816101369190610b78565b5060a08201518160050160006101000a81548160ff0219169083151502179055509050507f4463091c200c0fecf95a09074e4d8ff6a5b56daeb74da82bb9be2aaacda543bf876040516101899190610cb6565b60405180910390a150505050505050565b6101a26104bc565b600160008381526020019081526020016000206040518060c00160405290816000820180546101d09061099b565b80601f01602080910402602001604051908101604052809291908181526020018280546101fc9061099b565b80156102495780601f1061021e57610100808354040283529160200191610249565b820191906000526020600020905b81548152906001019060200180831161022c57829003601f168201915b505050505081526020016001820180546102629061099b565b80601f016020809104026020016040519081016040528092919081815260200182805461028e9061099b565b80156102db5780601f106102b0576101008083540402835291602001916102db565b820191906000526020600020905b8154815290600101906020018083116102be57829003601f168201915b505050505081526020016002820180546102f49061099b565b80601f01602080910402602001604051908101604052809291908181526020018280546103209061099b565b801561036d5780601f106103425761010080835404028352916020019161036d565b820191906000526020600020905b81548152906001019060200180831161035057829003601f168201915b505050505081526020016003820180546103869061099b565b80601f01602080910402602001604051908101604052809291908181526020018280546103b29061099b565b80156103ff5780601f106103d4576101008083540402835291602001916103ff565b820191906000526020600020905b8154815290600101906020018083116103e257829003601f168201915b505050505081526020016004820180546104189061099b565b80601f01602080910402602001604051908101604052809291908181526020018280546104449061099b565b80156104915780601f1061046657610100808354040283529160200191610491565b820191906000526020600020905b81548152906001019060200180831161047457829003601f168201915b505050505081526020016005820160009054906101000a900460ff1615151515815250509050919050565b6040518060c0016040528060608152602001606081526020016060815260200160608152602001606081526020016000151581525090565b6000604051905090565b600080fd5b600080fd5b6000819050919050565b61051b81610508565b811461052657600080fd5b50565b60008135905061053881610512565b92915050565b600080fd5b600080fd5b6000601f19601f8301169050919050565b7f4e487b7100000000000000000000000000000000000000000000000000000000600052604160045260246000fd5b61059182610548565b810181811067ffffffffffffffff821117156105b0576105af610559565b5b80604052505050565b60006105c36104f4565b90506105cf8282610588565b919050565b600067ffffffffffffffff8211156105ef576105ee610559565b5b6105f882610548565b9050602081019050919050565b82818337600083830152505050565b6000610627610622846105d4565b6105b9565b90508281526020810184848401111561064357610642610543565b5b61064e848285610605565b509392505050565b600082601f83011261066b5761066a61053e565b5b813561067b848260208601610614565b91505092915050565b60008115159050919050565b61069981610684565b81146106a457600080fd5b50565b6000813590506106b681610690565b92915050565b600080600080600080600060e0888a0312156106db576106da6104fe565b5b60006106e98a828b01610529565b975050602088013567ffffffffffffffff81111561070a57610709610503565b5b6107168a828b01610656565b965050604088013567ffffffffffffffff81111561073757610736610503565b5b6107438a828b01610656565b955050606088013567ffffffffffffffff81111561076457610763610503565b5b6107708a828b01610656565b945050608088013567ffffffffffffffff81111561079157610790610503565b5b61079d8a828b01610656565b93505060a088013567ffffffffffffffff8111156107be576107bd610503565b5b6107ca8a828b01610656565b92505060c06107db8a828b016106a7565b91505092959891949750929550565b600060208284031215610800576107ff6104fe565b5b600061080e84828501610529565b91505092915050565b600081519050919050565b600082825260208201905092915050565b60005b83811015610851578082015181840152602081019050610836565b60008484015250505050565b600061086882610817565b6108728185610822565b9350610882818560208601610833565b61088b81610548565b840191505092915050565b61089f81610684565b82525050565b600060c08301600083015184820360008601526108c2828261085d565b915050602083015184820360208601526108dc828261085d565b915050604083015184820360408601526108f6828261085d565b91505060608301518482036060860152610910828261085d565b9150506080830151848203608086015261092a828261085d565b91505060a083015161093f60a0860182610896565b508091505092915050565b6000602082019050818103600083015261096481846108a5565b905092915050565b7f4e487b7100000000000000000000000000000000000000000000000000000000600052602260045260246000fd5b600060028204905060018216806109b357607f821691505b6020821081036109c6576109c561096c565b5b50919050565b60008190508160005260206000209050919050565b60006020601f8301049050919050565b600082821b905092915050565b600060088302610a2e7fffffffffffffffffffffffffffffffffffffffffffffffffffffffffffffffff826109f1565b610a3886836109f1565b95508019841693508086168417925050509392505050565b6000819050919050565b6000610a75610a70610a6b84610508565b610a50565b610508565b9050919050565b6000819050919050565b610a8f83610a5a565b610aa3610a9b82610a7c565b8484546109fe565b825550505050565b600090565b610ab8610aab565b610ac3818484610a86565b505050565b5b81811015610ae757610adc600082610ab0565b600181019050610ac9565b5050565b601f821115610b2c57610afd816109cc565b610b06846109e1565b81016020851015610b15578190505b610b29610b21856109e1565b830182610ac8565b50505b505050565b600082821c905092915050565b6000610b4f60001984600802610b31565b1980831691505092915050565b6000610b688383610b3e565b9150826002028217905092915050565b610b8182610817565b67ffffffffffffffff811115610b9a57610b99610559565b5b610ba4825461099b565b610baf828285610aeb565b600060209050601f831160018114610be25760008415610bd0578287015190505b610bda8582610b5c565b865550610c42565b601f198416610bf0866109cc565b60005b82811015610c1857848901518255600182019150602085019450602081019050610bf3565b86831015610c355784890151610c31601f891682610b3e565b8355505b6001600288020188555050505b505050505050565b610c5381610508565b82525050565b600082825260208201905092915050565b7f494f54204461746120736176656420696e20636f6e7472616374000000000000600082015250565b6000610ca0601a83610c59565b9150610cab82610c6a565b602082019050919050565b6000604082019050610ccb6000830184610c4a565b8181036020830152610cdc81610c93565b90509291505056fea264697066735822122092aa00bf32bbf72983db8a9b11c8a41ac956f51c7521bd382ed321ddc019cb4264736f6c63430008140033",
  "linkReferences": {},
  "deployedLinkReferences": {}
}