{
  "_format": "hh-sol-artifact-1",
  "contractName": "UserRegistry",
  "sourceName": "contracts/UserRegistry.sol",
  "abi": [
    {
      "inputs": [],
      "stateMutability": "nonpayable",
      "type": "constructor"
    },
    {
      "anonymous": false,
      "inputs": [
        {
          "indexed": false,
          "internalType": "uint256",
          "name": "hospitalID",
          "type": "uint256"
        },
        {
          "indexed": true,
          "internalType": "address",
          "name": "hospitalAddress",
          "type": "address"
        },
        {
          "indexed": false,
          "internalType": "string",
          "name": "message",
          "type": "string"
        }
      ],
      "name": "HospitalRegistered",
      "type": "event"
    },
    {
      "anonymous": false,
      "inputs": [
        {
          "indexed": true,
          "internalType": "address",
          "name": "userAddress",
          "type": "address"
        },
        {
          "indexed": false,
          "internalType": "string",
          "name": "message",
          "type": "string"
        }
      ],
      "name": "userRegistered",
      "type": "event"
    },
    {
      "inputs": [
        {
          "internalType": "address",
          "name": "",
          "type": "address"
        }
      ],
      "name": "Users",
      "outputs": [
        {
          "internalType": "uint256",
          "name": "userID",
          "type": "uint256"
        },
        {
          "internalType": "enum UserRegistry.Bloodtype",
          "name": "bloodGroup",
          "type": "uint8"
        },
        {
          "internalType": "uint256",
          "name": "BMI",
          "type": "uint256"
        },
        {
          "internalType": "address",
          "name": "hospitalAddress",
          "type": "address"
        },
        {
          "internalType": "enum UserRegistry.UserRole",
          "name": "userType",
          "type": "uint8"
        }
      ],
      "stateMutability": "view",
      "type": "function"
    },
    {
      "inputs": [
        {
          "internalType": "address",
          "name": "patientAddress",
          "type": "address"
        },
        {
          "internalType": "uint256",
          "name": "requestID",
          "type": "uint256"
        },
        {
          "internalType": "address",
          "name": "_donorAddress",
          "type": "address"
        },
        {
          "internalType": "uint256",
          "name": "_organType",
          "type": "uint256"
        }
      ],
      "name": "addRefusal",
      "outputs": [],
      "stateMutability": "nonpayable",
      "type": "function"
    },
    {
      "inputs": [
        {
          "internalType": "address",
          "name": "_donorAddress",
          "type": "address"
        },
        {
          "internalType": "uint256",
          "name": "_organType",
          "type": "uint256"
        }
      ],
      "name": "checkOrganAvaiablity",
      "outputs": [
        {
          "internalType": "uint256",
          "name": "",
          "type": "uint256"
        }
      ],
      "stateMutability": "view",
      "type": "function"
    },
    {
      "inputs": [
        {
          "internalType": "address",
          "name": "_hospitalAddress",
          "type": "address"
        }
      ],
      "name": "getHosptial",
      "outputs": [
        {
          "components": [
            {
              "internalType": "uint256",
              "name": "hospitalID",
              "type": "uint256"
            },
            {
              "internalType": "string",
              "name": "name",
              "type": "string"
            },
            {
              "internalType": "address",
              "name": "hospitalAddress",
              "type": "address"
            },
            {
              "internalType": "bool",
              "name": "isRegistered",
              "type": "bool"
            }
          ],
          "internalType": "struct UserRegistry.Hospital",
          "name": "",
          "type": "tuple"
        }
      ],
      "stateMutability": "view",
      "type": "function"
    },
    {
      "inputs": [
        {
          "internalType": "address",
          "name": "_userAddress",
          "type": "address"
        }
      ],
      "name": "getUser",
      "outputs": [
        {
          "components": [
            {
              "internalType": "uint256",
              "name": "userID",
              "type": "uint256"
            },
            {
              "internalType": "enum UserRegistry.Bloodtype",
              "name": "bloodGroup",
              "type": "uint8"
            },
            {
              "internalType": "uint256",
              "name": "BMI",
              "type": "uint256"
            },
            {
              "internalType": "address",
              "name": "hospitalAddress",
              "type": "address"
            },
            {
              "internalType": "uint256[]",
              "name": "organRefusalList",
              "type": "uint256[]"
            },
            {
              "internalType": "enum UserRegistry.UserRole",
              "name": "userType",
              "type": "uint8"
            }
          ],
          "internalType": "struct UserRegistry.User",
          "name": "",
          "type": "tuple"
        },
        {
          "internalType": "enum UserRegistry.OrganStatus[]",
          "name": "",
          "type": "uint8[]"
        }
      ],
      "stateMutability": "view",
      "type": "function"
    },
    {
      "inputs": [
        {
          "internalType": "address",
          "name": "",
          "type": "address"
        }
      ],
      "name": "hospitals",
      "outputs": [
        {
          "internalType": "uint256",
          "name": "hospitalID",
          "type": "uint256"
        },
        {
          "internalType": "string",
          "name": "name",
          "type": "string"
        },
        {
          "internalType": "address",
          "name": "hospitalAddress",
          "type": "address"
        },
        {
          "internalType": "bool",
          "name": "isRegistered",
          "type": "bool"
        }
      ],
      "stateMutability": "view",
      "type": "function"
    },
    {
      "inputs": [],
      "name": "hospitalsCount",
      "outputs": [
        {
          "internalType": "uint256",
          "name": "",
          "type": "uint256"
        }
      ],
      "stateMutability": "view",
      "type": "function"
    },
    {
      "inputs": [
        {
          "internalType": "address",
          "name": "_hospitalAddress",
          "type": "address"
        }
      ],
      "name": "isHospitalRegistered",
      "outputs": [
        {
          "internalType": "bool",
          "name": "",
          "type": "bool"
        }
      ],
      "stateMutability": "view",
      "type": "function"
    },
    {
      "inputs": [
        {
          "internalType": "address",
          "name": "_donorAddress",
          "type": "address"
        },
        {
          "internalType": "uint256",
          "name": "_organType",
          "type": "uint256"
        }
      ],
      "name": "markOrganDonated",
      "outputs": [
        {
          "internalType": "bool",
          "name": "",
          "type": "bool"
        }
      ],
      "stateMutability": "nonpayable",
      "type": "function"
    },
    {
      "inputs": [
        {
          "internalType": "address",
          "name": "hospitalAddress",
          "type": "address"
        },
        {
          "internalType": "string",
          "name": "_name",
          "type": "string"
        }
      ],
      "name": "registerHospital",
      "outputs": [],
      "stateMutability": "nonpayable",
      "type": "function"
    },
    {
      "inputs": [
        {
          "internalType": "address",
          "name": "_userAddress",
          "type": "address"
        },
        {
          "internalType": "enum UserRegistry.Bloodtype",
          "name": "_bloodtype",
          "type": "uint8"
        },
        {
          "internalType": "uint256",
          "name": "_bmi",
          "type": "uint256"
        },
        {
          "internalType": "enum UserRegistry.UserRole",
          "name": "_userType",
          "type": "uint8"
        },
        {
          "internalType": "enum UserRegistry.OrganType[]",
          "name": "organs",
          "type": "uint8[]"
        }
      ],
      "name": "registerUser",
      "outputs": [],
      "stateMutability": "nonpayable",
      "type": "function"
    },
    {
      "inputs": [
        {
          "internalType": "address",
          "name": "_userAddress",
          "type": "address"
        },
        {
          "internalType": "uint256",
          "name": "_bmi",
          "type": "uint256"
        },
        {
          "internalType": "enum UserRegistry.Bloodtype",
          "name": "_bloodType",
          "type": "uint8"
        }
      ],
      "name": "switchDonorToPatient",
      "outputs": [],
      "stateMutability": "nonpayable",
      "type": "function"
    },
    {
      "inputs": [
        {
          "internalType": "address",
          "name": "_userAddress",
          "type": "address"
        },
        {
          "internalType": "enum UserRegistry.OrganType[]",
          "name": "organList",
          "type": "uint8[]"
        },
        {
          "internalType": "uint256",
          "name": "_bmi",
          "type": "uint256"
        },
        {
          "internalType": "enum UserRegistry.Bloodtype",
          "name": "_bloodType",
          "type": "uint8"
        }
      ],
      "name": "switchPatientToDonor",
      "outputs": [],
      "stateMutability": "nonpayable",
      "type": "function"
    }
  ],
  "bytecode": "0x608060405234801561001057600080fd5b5060006004819055506000600581905550336000806101000a81548173ffffffffffffffffffffffffffffffffffffffff021916908373ffffffffffffffffffffffffffffffffffffffff160217905550612cd7806100706000396000f3fe608060405234801561001057600080fd5b50600436106100cf5760003560e01c8063bc84243e1161008c578063d8d09d1b11610066578063d8d09d1b1461023b578063e4fa160c14610257578063f093cf8014610287578063f8d084a5146102ba576100cf565b8063bc84243e146101bd578063c557f69c146101ed578063c874d23d1461021d576100cf565b80634fbaa023146100d45780636f77926b146100f05780637c2356911461012157806399b956a014610151578063af077f6514610185578063bae85a5d146101a1575b600080fd5b6100ee60048036038101906100e99190611b8d565b6102d6565b005b61010a60048036038101906101059190611be9565b61056b565b604051610118929190611f2c565b60405180910390f35b61013b60048036038101906101369190611f8f565b610819565b6040516101489190611fde565b60405180910390f35b61016b60048036038101906101669190611be9565b610893565b60405161017c959493929190612026565b60405180910390f35b61019f600480360381019061019a91906121b0565b610903565b005b6101bb60048036038101906101b69190612247565b610d8c565b005b6101d760048036038101906101d29190611be9565b61109b565b6040516101e491906122e5565b60405180910390f35b61020760048036038101906102029190611f8f565b6110f4565b60405161021491906122e5565b60405180910390f35b610225611207565b6040516102329190611fde565b60405180910390f35b61025560048036038101906102509190612300565b61120d565b005b610271600480360381019061026c9190611be9565b611455565b60405161027e9190612444565b60405180910390f35b6102a1600480360381019061029c9190611be9565b6115bb565b6040516102b194939291906124b0565b60405180910390f35b6102d460048036038101906102cf91906124fc565b6116a0565b005b60008054906101000a900473ffffffffffffffffffffffffffffffffffffffff1673ffffffffffffffffffffffffffffffffffffffff163373ffffffffffffffffffffffffffffffffffffffff1614610364576040517f08c379a000000000000000000000000000000000000000000000000000000000815260040161035b906125af565b60405180910390fd5b60001515600160008473ffffffffffffffffffffffffffffffffffffffff1673ffffffffffffffffffffffffffffffffffffffff16815260200190815260200160002060020160149054906101000a900460ff161515146103fa576040517f08c379a00000000000000000000000000000000000000000000000000000000081526004016103f19061261b565b60405180910390fd5b6005600081548092919061040d9061266a565b9190505550604051806080016040528060055481526020018281526020018373ffffffffffffffffffffffffffffffffffffffff16815260200160011515815250600160008473ffffffffffffffffffffffffffffffffffffffff1673ffffffffffffffffffffffffffffffffffffffff1681526020019081526020016000206000820151816000015560208201518160010190816104ac91906128be565b5060408201518160020160006101000a81548173ffffffffffffffffffffffffffffffffffffffff021916908373ffffffffffffffffffffffffffffffffffffffff16021790555060608201518160020160146101000a81548160ff0219169083151502179055509050508173ffffffffffffffffffffffffffffffffffffffff167ff4f5917fdec8f2ae93dd79a5fe4b5b76c30534fb4abe4f82e84e8ed681b7de0a60055460405161055f91906129dc565b60405180910390a25050565b6105736118bb565b60606000600260008573ffffffffffffffffffffffffffffffffffffffff1673ffffffffffffffffffffffffffffffffffffffff1681526020019081526020016000206040518060c0016040529081600082015481526020016001820160009054906101000a900460ff1660078111156105f0576105ef611c2f565b5b600781111561060257610601611c2f565b5b8152602001600282015481526020016003820160009054906101000a900473ffffffffffffffffffffffffffffffffffffffff1673ffffffffffffffffffffffffffffffffffffffff1673ffffffffffffffffffffffffffffffffffffffff168152602001600482018054806020026020016040519081016040528092919081815260200182805480156106b557602002820191906000526020600020905b8154815260200190600101908083116106a1575b505050505081526020016005820160009054906101000a900460ff1660028111156106e3576106e2611c2f565b5b60028111156106f5576106f4611c2f565b5b8152505090506000600867ffffffffffffffff81111561071857610717611a62565b5b6040519080825280602002602001820160405280156107465781602001602082028036833780820191505090505b50905060005b600881101561080b57600360008773ffffffffffffffffffffffffffffffffffffffff1673ffffffffffffffffffffffffffffffffffffffff168152602001908152602001600020600082815260200190815260200160002060009054906101000a900460ff168282815181106107c6576107c5612a0a565b5b602002602001019060028111156107e0576107df611c2f565b5b908160028111156107f4576107f3611c2f565b5b8152505080806108039061266a565b91505061074c565b508181935093505050915091565b6000600360008473ffffffffffffffffffffffffffffffffffffffff1673ffffffffffffffffffffffffffffffffffffffff168152602001908152602001600020600083815260200190815260200160002060009054906101000a900460ff16600281111561088b5761088a611c2f565b5b905092915050565b60026020528060005260406000206000915090508060000154908060010160009054906101000a900460ff16908060020154908060030160009054906101000a900473ffffffffffffffffffffffffffffffffffffffff16908060050160009054906101000a900460ff16905085565b600160003373ffffffffffffffffffffffffffffffffffffffff1673ffffffffffffffffffffffffffffffffffffffff16815260200190815260200160002060020160149054906101000a900460ff16610992576040517f08c379a000000000000000000000000000000000000000000000000000000000815260040161098990612aab565b60405180910390fd5b6000600260008773ffffffffffffffffffffffffffffffffffffffff1673ffffffffffffffffffffffffffffffffffffffff1681526020019081526020016000206000015414610a17576040517f08c379a0000000000000000000000000000000000000000000000000000000008152600401610a0e90612b17565b60405180910390fd5b60046000815480929190610a2a9061266a565b91905055506040518060c001604052806004548152602001856007811115610a5557610a54611c2f565b5b81526020018481526020013373ffffffffffffffffffffffffffffffffffffffff168152602001600067ffffffffffffffff811115610a9757610a96611a62565b5b604051908082528060200260200182016040528015610ac55781602001602082028036833780820191505090505b508152602001836002811115610ade57610add611c2f565b5b815250600260008773ffffffffffffffffffffffffffffffffffffffff1673ffffffffffffffffffffffffffffffffffffffff1681526020019081526020016000206000820151816000015560208201518160010160006101000a81548160ff02191690836007811115610b5557610b54611c2f565b5b02179055506040820151816002015560608201518160030160006101000a81548173ffffffffffffffffffffffffffffffffffffffff021916908373ffffffffffffffffffffffffffffffffffffffff1602179055506080820151816004019080519060200190610bc792919061192b565b5060a08201518160050160006101000a81548160ff02191690836002811115610bf357610bf2611c2f565b5b021790555090505060016002811115610c0f57610c0e611c2f565b5b826002811115610c2257610c21611c2f565b5b03610d395760005b8151811015610ceb576001600360008873ffffffffffffffffffffffffffffffffffffffff1673ffffffffffffffffffffffffffffffffffffffff1681526020019081526020016000206000848481518110610c8957610c88612a0a565b5b60200260200101516007811115610ca357610ca2611c2f565b5b815260200190815260200160002060006101000a81548160ff02191690836002811115610cd357610cd2611c2f565b5b02179055508080610ce39061266a565b915050610c2a565b508473ffffffffffffffffffffffffffffffffffffffff167fe5d4ce58d70016e45a65c0ac4176f20836975b47dac57ed370c1e730c58d49fc604051610d3090612b83565b60405180910390a25b8473ffffffffffffffffffffffffffffffffffffffff167fe5d4ce58d70016e45a65c0ac4176f20836975b47dac57ed370c1e730c58d49fc604051610d7d90612bef565b60405180910390a25050505050565b600160003373ffffffffffffffffffffffffffffffffffffffff1673ffffffffffffffffffffffffffffffffffffffff16815260200190815260200160002060020160149054906101000a900460ff16610e1b576040517f08c379a0000000000000000000000000000000000000000000000000000000008152600401610e1290612aab565b60405180910390fd5b6001600260008673ffffffffffffffffffffffffffffffffffffffff1673ffffffffffffffffffffffffffffffffffffffff16815260200190815260200160002060050160006101000a81548160ff02191690836002811115610e8157610e80611c2f565b5b021790555081600260008673ffffffffffffffffffffffffffffffffffffffff1673ffffffffffffffffffffffffffffffffffffffff1681526020019081526020016000206002018190555080600260008673ffffffffffffffffffffffffffffffffffffffff1673ffffffffffffffffffffffffffffffffffffffff16815260200190815260200160002060010160006101000a81548160ff02191690836007811115610f3257610f31611c2f565b5b021790555060005b6008811015610fcf576000600360008773ffffffffffffffffffffffffffffffffffffffff1673ffffffffffffffffffffffffffffffffffffffff168152602001908152602001600020600083815260200190815260200160002060006101000a81548160ff02191690836002811115610fb757610fb6611c2f565b5b02179055508080610fc79061266a565b915050610f3a565b5060005b8351811015611094576001600360008773ffffffffffffffffffffffffffffffffffffffff1673ffffffffffffffffffffffffffffffffffffffff168152602001908152602001600020600086848151811061103257611031612a0a565b5b6020026020010151600781111561104c5761104b611c2f565b5b815260200190815260200160002060006101000a81548160ff0219169083600281111561107c5761107b611c2f565b5b0217905550808061108c9061266a565b915050610fd3565b5050505050565b6000600160008373ffffffffffffffffffffffffffffffffffffffff1673ffffffffffffffffffffffffffffffffffffffff16815260200190815260200160002060020160149054906101000a900460ff169050919050565b60006001600281111561110a57611109611c2f565b5b600360008573ffffffffffffffffffffffffffffffffffffffff1673ffffffffffffffffffffffffffffffffffffffff168152602001908152602001600020600084815260200190815260200160002060009054906101000a900460ff16600281111561117a57611179611c2f565b5b1461118457600080fd5b6002600360008573ffffffffffffffffffffffffffffffffffffffff1673ffffffffffffffffffffffffffffffffffffffff168152602001908152602001600020600084815260200190815260200160002060006101000a81548160ff021916908360028111156111f8576111f7611c2f565b5b02179055506001905092915050565b60055481565b600160003373ffffffffffffffffffffffffffffffffffffffff1673ffffffffffffffffffffffffffffffffffffffff16815260200190815260200160002060020160149054906101000a900460ff1661129c576040517f08c379a000000000000000000000000000000000000000000000000000000000815260040161129390612aab565b60405180910390fd5b60028060008573ffffffffffffffffffffffffffffffffffffffff1673ffffffffffffffffffffffffffffffffffffffff16815260200190815260200160002060050160006101000a81548160ff0219169083600281111561130157611300611c2f565b5b021790555081600260008573ffffffffffffffffffffffffffffffffffffffff1673ffffffffffffffffffffffffffffffffffffffff1681526020019081526020016000206002018190555080600260008573ffffffffffffffffffffffffffffffffffffffff1673ffffffffffffffffffffffffffffffffffffffff16815260200190815260200160002060010160006101000a81548160ff021916908360078111156113b2576113b1611c2f565b5b021790555060005b600881101561144f576000600360008673ffffffffffffffffffffffffffffffffffffffff1673ffffffffffffffffffffffffffffffffffffffff168152602001908152602001600020600083815260200190815260200160002060006101000a81548160ff0219169083600281111561143757611436611c2f565b5b021790555080806114479061266a565b9150506113ba565b50505050565b61145d611978565b600160008373ffffffffffffffffffffffffffffffffffffffff1673ffffffffffffffffffffffffffffffffffffffff168152602001908152602001600020604051806080016040529081600082015481526020016001820180546114c1906126e1565b80601f01602080910402602001604051908101604052809291908181526020018280546114ed906126e1565b801561153a5780601f1061150f5761010080835404028352916020019161153a565b820191906000526020600020905b81548152906001019060200180831161151d57829003601f168201915b505050505081526020016002820160009054906101000a900473ffffffffffffffffffffffffffffffffffffffff1673ffffffffffffffffffffffffffffffffffffffff1673ffffffffffffffffffffffffffffffffffffffff1681526020016002820160149054906101000a900460ff1615151515815250509050919050565b60016020528060005260406000206000915090508060000154908060010180546115e4906126e1565b80601f0160208091040260200160405190810160405280929190818152602001828054611610906126e1565b801561165d5780601f106116325761010080835404028352916020019161165d565b820191906000526020600020905b81548152906001019060200180831161164057829003601f168201915b5050505050908060020160009054906101000a900473ffffffffffffffffffffffffffffffffffffffff16908060020160149054906101000a900460ff16905084565b600060028111156116b4576116b3611c2f565b5b600260008673ffffffffffffffffffffffffffffffffffffffff1673ffffffffffffffffffffffffffffffffffffffff16815260200190815260200160002060050160009054906101000a900460ff16600281111561171657611715611c2f565b5b148061179457506002808111156117305761172f611c2f565b5b600260008673ffffffffffffffffffffffffffffffffffffffff1673ffffffffffffffffffffffffffffffffffffffff16815260200190815260200160002060050160009054906101000a900460ff16600281111561179257611791611c2f565b5b145b6117d3576040517f08c379a00000000000000000000000000000000000000000000000000000000081526004016117ca90612c81565b60405180910390fd5b6001600360008473ffffffffffffffffffffffffffffffffffffffff1673ffffffffffffffffffffffffffffffffffffffff168152602001908152602001600020600083815260200190815260200160002060006101000a81548160ff0219169083600281111561184757611846611c2f565b5b0217905550600260008573ffffffffffffffffffffffffffffffffffffffff1673ffffffffffffffffffffffffffffffffffffffff16815260200190815260200160002060040183908060018154018082558091505060019003906000526020600020016000909190919091505550505050565b6040518060c0016040528060008152602001600060078111156118e1576118e0611c2f565b5b815260200160008152602001600073ffffffffffffffffffffffffffffffffffffffff168152602001606081526020016000600281111561192557611924611c2f565b5b81525090565b828054828255906000526020600020908101928215611967579160200282015b8281111561196657825182559160200191906001019061194b565b5b50905061197491906119b8565b5090565b60405180608001604052806000815260200160608152602001600073ffffffffffffffffffffffffffffffffffffffff1681526020016000151581525090565b5b808211156119d15760008160009055506001016119b9565b5090565b6000604051905090565b600080fd5b600080fd5b600073ffffffffffffffffffffffffffffffffffffffff82169050919050565b6000611a14826119e9565b9050919050565b611a2481611a09565b8114611a2f57600080fd5b50565b600081359050611a4181611a1b565b92915050565b600080fd5b600080fd5b6000601f19601f8301169050919050565b7f4e487b7100000000000000000000000000000000000000000000000000000000600052604160045260246000fd5b611a9a82611a51565b810181811067ffffffffffffffff82111715611ab957611ab8611a62565b5b80604052505050565b6000611acc6119d5565b9050611ad88282611a91565b919050565b600067ffffffffffffffff821115611af857611af7611a62565b5b611b0182611a51565b9050602081019050919050565b82818337600083830152505050565b6000611b30611b2b84611add565b611ac2565b905082815260208101848484011115611b4c57611b4b611a4c565b5b611b57848285611b0e565b509392505050565b600082601f830112611b7457611b73611a47565b5b8135611b84848260208601611b1d565b91505092915050565b60008060408385031215611ba457611ba36119df565b5b6000611bb285828601611a32565b925050602083013567ffffffffffffffff811115611bd357611bd26119e4565b5b611bdf85828601611b5f565b9150509250929050565b600060208284031215611bff57611bfe6119df565b5b6000611c0d84828501611a32565b91505092915050565b6000819050919050565b611c2981611c16565b82525050565b7f4e487b7100000000000000000000000000000000000000000000000000000000600052602160045260246000fd5b60088110611c6f57611c6e611c2f565b5b50565b6000819050611c8082611c5e565b919050565b6000611c9082611c72565b9050919050565b611ca081611c85565b82525050565b611caf81611a09565b82525050565b600081519050919050565b600082825260208201905092915050565b6000819050602082019050919050565b6000611ced8383611c20565b60208301905092915050565b6000602082019050919050565b6000611d1182611cb5565b611d1b8185611cc0565b9350611d2683611cd1565b8060005b83811015611d57578151611d3e8882611ce1565b9750611d4983611cf9565b925050600181019050611d2a565b5085935050505092915050565b60038110611d7557611d74611c2f565b5b50565b6000819050611d8682611d64565b919050565b6000611d9682611d78565b9050919050565b611da681611d8b565b82525050565b600060c083016000830151611dc46000860182611c20565b506020830151611dd76020860182611c97565b506040830151611dea6040860182611c20565b506060830151611dfd6060860182611ca6565b5060808301518482036080860152611e158282611d06565b91505060a0830151611e2a60a0860182611d9d565b508091505092915050565b600081519050919050565b600082825260208201905092915050565b6000819050602082019050919050565b60038110611e7257611e71611c2f565b5b50565b6000819050611e8382611e61565b919050565b6000611e9382611e75565b9050919050565b611ea381611e88565b82525050565b6000611eb58383611e9a565b60208301905092915050565b6000602082019050919050565b6000611ed982611e35565b611ee38185611e40565b9350611eee83611e51565b8060005b83811015611f1f578151611f068882611ea9565b9750611f1183611ec1565b925050600181019050611ef2565b5085935050505092915050565b60006040820190508181036000830152611f468185611dac565b90508181036020830152611f5a8184611ece565b90509392505050565b611f6c81611c16565b8114611f7757600080fd5b50565b600081359050611f8981611f63565b92915050565b60008060408385031215611fa657611fa56119df565b5b6000611fb485828601611a32565b9250506020611fc585828601611f7a565b9150509250929050565b611fd881611c16565b82525050565b6000602082019050611ff36000830184611fcf565b92915050565b61200281611c85565b82525050565b61201181611a09565b82525050565b61202081611d8b565b82525050565b600060a08201905061203b6000830188611fcf565b6120486020830187611ff9565b6120556040830186611fcf565b6120626060830185612008565b61206f6080830184612017565b9695505050505050565b6008811061208657600080fd5b50565b60008135905061209881612079565b92915050565b600381106120ab57600080fd5b50565b6000813590506120bd8161209e565b92915050565b600067ffffffffffffffff8211156120de576120dd611a62565b5b602082029050602081019050919050565b600080fd5b6008811061210157600080fd5b50565b600081359050612113816120f4565b92915050565b600061212c612127846120c3565b611ac2565b9050808382526020820190506020840283018581111561214f5761214e6120ef565b5b835b8181101561217857806121648882612104565b845260208401935050602081019050612151565b5050509392505050565b600082601f83011261219757612196611a47565b5b81356121a7848260208601612119565b91505092915050565b600080600080600060a086880312156121cc576121cb6119df565b5b60006121da88828901611a32565b95505060206121eb88828901612089565b94505060406121fc88828901611f7a565b935050606061220d888289016120ae565b925050608086013567ffffffffffffffff81111561222e5761222d6119e4565b5b61223a88828901612182565b9150509295509295909350565b60008060008060808587031215612261576122606119df565b5b600061226f87828801611a32565b945050602085013567ffffffffffffffff8111156122905761228f6119e4565b5b61229c87828801612182565b93505060406122ad87828801611f7a565b92505060606122be87828801612089565b91505092959194509250565b60008115159050919050565b6122df816122ca565b82525050565b60006020820190506122fa60008301846122d6565b92915050565b600080600060608486031215612319576123186119df565b5b600061232786828701611a32565b935050602061233886828701611f7a565b925050604061234986828701612089565b9150509250925092565b600081519050919050565b600082825260208201905092915050565b60005b8381101561238d578082015181840152602081019050612372565b60008484015250505050565b60006123a482612353565b6123ae818561235e565b93506123be81856020860161236f565b6123c781611a51565b840191505092915050565b6123db816122ca565b82525050565b60006080830160008301516123f96000860182611c20565b50602083015184820360208601526124118282612399565b91505060408301516124266040860182611ca6565b50606083015161243960608601826123d2565b508091505092915050565b6000602082019050818103600083015261245e81846123e1565b905092915050565b600082825260208201905092915050565b600061248282612353565b61248c8185612466565b935061249c81856020860161236f565b6124a581611a51565b840191505092915050565b60006080820190506124c56000830187611fcf565b81810360208301526124d78186612477565b90506124e66040830185612008565b6124f360608301846122d6565b95945050505050565b60008060008060808587031215612516576125156119df565b5b600061252487828801611a32565b945050602061253587828801611f7a565b935050604061254687828801611a32565b925050606061255787828801611f7a565b91505092959194509250565b7f6f6e6c79206f776e65722063616e2063616c6c00000000000000000000000000600082015250565b6000612599601383612466565b91506125a482612563565b602082019050919050565b600060208201905081810360008301526125c88161258c565b9050919050565b7f486f73706974616c20616c726561647920726567697374657265640000000000600082015250565b6000612605601b83612466565b9150612610826125cf565b602082019050919050565b60006020820190508181036000830152612634816125f8565b9050919050565b7f4e487b7100000000000000000000000000000000000000000000000000000000600052601160045260246000fd5b600061267582611c16565b91507fffffffffffffffffffffffffffffffffffffffffffffffffffffffffffffffff82036126a7576126a661263b565b5b600182019050919050565b7f4e487b7100000000000000000000000000000000000000000000000000000000600052602260045260246000fd5b600060028204905060018216806126f957607f821691505b60208210810361270c5761270b6126b2565b5b50919050565b60008190508160005260206000209050919050565b60006020601f8301049050919050565b600082821b905092915050565b6000600883026127747fffffffffffffffffffffffffffffffffffffffffffffffffffffffffffffffff82612737565b61277e8683612737565b95508019841693508086168417925050509392505050565b6000819050919050565b60006127bb6127b66127b184611c16565b612796565b611c16565b9050919050565b6000819050919050565b6127d5836127a0565b6127e96127e1826127c2565b848454612744565b825550505050565b600090565b6127fe6127f1565b6128098184846127cc565b505050565b5b8181101561282d576128226000826127f6565b60018101905061280f565b5050565b601f8211156128725761284381612712565b61284c84612727565b8101602085101561285b578190505b61286f61286785612727565b83018261280e565b50505b505050565b600082821c905092915050565b600061289560001984600802612877565b1980831691505092915050565b60006128ae8383612884565b9150826002028217905092915050565b6128c782612353565b67ffffffffffffffff8111156128e0576128df611a62565b5b6128ea82546126e1565b6128f5828285612831565b600060209050601f8311600181146129285760008415612916578287015190505b61292085826128a2565b865550612988565b601f19841661293686612712565b60005b8281101561295e57848901518255600182019150602085019450602081019050612939565b8683101561297b5784890151612977601f891682612884565b8355505b6001600288020188555050505b505050505050565b7f686f73706974616c207265676973746572656400000000000000000000000000600082015250565b60006129c6601383612466565b91506129d182612990565b602082019050919050565b60006040820190506129f16000830184611fcf565b8181036020830152612a02816129b9565b905092915050565b7f4e487b7100000000000000000000000000000000000000000000000000000000600052603260045260246000fd5b7f4f6e6c79207265676973746572656420686f73706974616c732063616e20636160008201527f6c6c20746869732066756e6374696f6e00000000000000000000000000000000602082015250565b6000612a95603083612466565b9150612aa082612a39565b604082019050919050565b60006020820190508181036000830152612ac481612a88565b9050919050565b7f5573657220697320616c72656164792072656769737465726564000000000000600082015250565b6000612b01601a83612466565b9150612b0c82612acb565b602082019050919050565b60006020820190508181036000830152612b3081612af4565b9050919050565b7f446f6e6f7220526567697374657265642053756365737366756c6c7900000000600082015250565b6000612b6d601c83612466565b9150612b7882612b37565b602082019050919050565b60006020820190508181036000830152612b9c81612b60565b9050919050565b7f50617469656e7420526567697374657265642053756365737366756c6c790000600082015250565b6000612bd9601e83612466565b9150612be482612ba3565b602082019050919050565b60006020820190508181036000830152612c0881612bcc565b9050919050565b7f4f6e6c7920646f63746f7273206f722070617469656e74732063616e2072656660008201527f7573650000000000000000000000000000000000000000000000000000000000602082015250565b6000612c6b602383612466565b9150612c7682612c0f565b604082019050919050565b60006020820190508181036000830152612c9a81612c5e565b905091905056fea264697066735822122080ccb129c3849d17f37c79a59b237a494e6d75cfc94e457f97b43e48744c6d9a64736f6c63430008140033",
  "linkReferences": {},
  "deployedLinkReferences": {}
}